{
	"FundMe.sol": {
		"FundMe": {
			"abi": [
				{
					"inputs": [],
					"stateMutability": "nonpayable",
					"type": "constructor"
				},
				{
					"inputs": [],
					"name": "NotOwner",
					"type": "error"
				},
				{
					"stateMutability": "payable",
					"type": "fallback"
				},
				{
					"inputs": [],
					"name": "MINIMUN_USD",
					"outputs": [
						{
							"internalType": "uint256",
							"name": "",
							"type": "uint256"
						}
					],
					"stateMutability": "view",
					"type": "function"
				},
				{
					"inputs": [
						{
							"internalType": "address",
							"name": "funder",
							"type": "address"
						}
					],
					"name": "addressToAmountFunded",
					"outputs": [
						{
							"internalType": "uint256",
							"name": "amountFunded",
							"type": "uint256"
						}
					],
					"stateMutability": "view",
					"type": "function"
				},
				{
					"inputs": [],
					"name": "fund",
					"outputs": [],
					"stateMutability": "payable",
					"type": "function"
				},
				{
					"inputs": [
						{
							"internalType": "uint256",
							"name": "",
							"type": "uint256"
						}
					],
					"name": "funders",
					"outputs": [
						{
							"internalType": "address",
							"name": "",
							"type": "address"
						}
					],
					"stateMutability": "view",
					"type": "function"
				},
				{
					"inputs": [],
					"name": "i_owner",
					"outputs": [
						{
							"internalType": "address",
							"name": "",
							"type": "address"
						}
					],
					"stateMutability": "view",
					"type": "function"
				},
				{
					"inputs": [],
					"name": "withdraw",
					"outputs": [],
					"stateMutability": "nonpayable",
					"type": "function"
				},
				{
					"stateMutability": "payable",
					"type": "receive"
				}
			],
			"devdoc": {
				"kind": "dev",
				"methods": {},
				"version": 1
			},
			"evm": {
				"assembly": "    /* \"FundMe.sol\":134:1542  contract FundMe {... */\n  mstore(0x40, 0xa0)\n    /* \"FundMe.sol\":394:445  constructor() {... */\n  callvalue\n  dup1\n  iszero\n  tag_1\n  jumpi\n  0x00\n  dup1\n  revert\ntag_1:\n  pop\n    /* \"FundMe.sol\":428:438  msg.sender */\n  caller\n    /* \"FundMe.sol\":418:438  i_owner = msg.sender */\n  0xffffffffffffffffffffffffffffffffffffffff\n  and\n  0x80\n  dup2\n  0xffffffffffffffffffffffffffffffffffffffff\n  and\n  dup2\n  mstore\n  pop\n  pop\n    /* \"FundMe.sol\":134:1542  contract FundMe {... */\n  mload(0x80)\n  codecopy(0x00, dataOffset(sub_0), dataSize(sub_0))\n  0x00\n  assignImmutable(\"0xd9670a00d025e59e1bd58d53874bea4ab34fea782716e2c168e89a3c8452d3bb\")\n  return(0x00, dataSize(sub_0))\nstop\n\nsub_0: assembly {\n        /* \"FundMe.sol\":134:1542  contract FundMe {... */\n      mstore(0x40, 0x80)\n      jumpi(tag_1, lt(calldatasize, 0x04))\n      shr(0xe0, calldataload(0x00))\n      dup1\n      0x2100f479\n      eq\n      tag_3\n      jumpi\n      dup1\n      0x3ccfd60b\n      eq\n      tag_4\n      jumpi\n      dup1\n      0x3e47d6f3\n      eq\n      tag_5\n      jumpi\n      dup1\n      0xb60d4288\n      eq\n      tag_6\n      jumpi\n      dup1\n      0xdba6335f\n      eq\n      tag_7\n      jumpi\n      dup1\n      0xdc0d3dff\n      eq\n      tag_8\n      jumpi\n      jump(tag_2)\n    tag_1:\n      jumpi(tag_2, calldatasize)\n        /* \"FundMe.sol\":1369:1375  fund() */\n      tag_11\n        /* \"FundMe.sol\":1369:1373  fund */\n      tag_12\n        /* \"FundMe.sol\":1369:1375  fund() */\n      jump\t// in\n    tag_11:\n        /* \"FundMe.sol\":134:1542  contract FundMe {... */\n      stop\n    tag_2:\n        /* \"FundMe.sol\":1526:1532  fund() */\n      tag_15\n        /* \"FundMe.sol\":1526:1530  fund */\n      tag_12\n        /* \"FundMe.sol\":1526:1532  fund() */\n      jump\t// in\n    tag_15:\n        /* \"FundMe.sol\":134:1542  contract FundMe {... */\n      stop\n        /* \"FundMe.sol\":195:237  uint256 public constant MINIMUN_USD = 5e18 */\n    tag_3:\n      callvalue\n      dup1\n      iszero\n      tag_16\n      jumpi\n      0x00\n      dup1\n      revert\n    tag_16:\n      pop\n      tag_17\n      tag_18\n      jump\t// in\n    tag_17:\n      mload(0x40)\n      tag_19\n      swap2\n      swap1\n      tag_20\n      jump\t// in\n    tag_19:\n      mload(0x40)\n      dup1\n      swap2\n      sub\n      swap1\n      return\n        /* \"FundMe.sol\":674:1103  function withdraw() public onlyOwner {... */\n    tag_4:\n      callvalue\n      dup1\n      iszero\n      tag_21\n      jumpi\n      0x00\n      dup1\n      revert\n    tag_21:\n      pop\n      tag_22\n      tag_23\n      jump\t// in\n    tag_22:\n      stop\n        /* \"FundMe.sol\":311:387  mapping(address funder => uint256 amountFunded) public addressToAmountFunded */\n    tag_5:\n      callvalue\n      dup1\n      iszero\n      tag_24\n      jumpi\n      0x00\n      dup1\n      revert\n    tag_24:\n      pop\n      tag_25\n      0x04\n      dup1\n      calldatasize\n      sub\n      dup2\n      add\n      swap1\n      tag_26\n      swap2\n      swap1\n      tag_27\n      jump\t// in\n    tag_26:\n      tag_28\n      jump\t// in\n    tag_25:\n      mload(0x40)\n      tag_29\n      swap2\n      swap1\n      tag_20\n      jump\t// in\n    tag_29:\n      mload(0x40)\n      dup1\n      swap2\n      sub\n      swap1\n      return\n        /* \"FundMe.sol\":451:668  function fund() public payable {... */\n    tag_6:\n      tag_30\n      tag_12\n      jump\t// in\n    tag_30:\n      stop\n        /* \"FundMe.sol\":273:305  address public immutable i_owner */\n    tag_7:\n      callvalue\n      dup1\n      iszero\n      tag_31\n      jumpi\n      0x00\n      dup1\n      revert\n    tag_31:\n      pop\n      tag_32\n      tag_33\n      jump\t// in\n    tag_32:\n      mload(0x40)\n      tag_34\n      swap2\n      swap1\n      tag_35\n      jump\t// in\n    tag_34:\n      mload(0x40)\n      dup1\n      swap2\n      sub\n      swap1\n      return\n        /* \"FundMe.sol\":243:267  address[] public funders */\n    tag_8:\n      callvalue\n      dup1\n      iszero\n      tag_36\n      jumpi\n      0x00\n      dup1\n      revert\n    tag_36:\n      pop\n      tag_37\n      0x04\n      dup1\n      calldatasize\n      sub\n      dup2\n      add\n      swap1\n      tag_38\n      swap2\n      swap1\n      tag_39\n      jump\t// in\n    tag_38:\n      tag_40\n      jump\t// in\n    tag_37:\n      mload(0x40)\n      tag_41\n      swap2\n      swap1\n      tag_35\n      jump\t// in\n    tag_41:\n      mload(0x40)\n      dup1\n      swap2\n      sub\n      swap1\n      return\n        /* \"FundMe.sol\":451:668  function fund() public payable {... */\n    tag_12:\n        /* \"FundMe.sol\":233:237  5e18 */\n      0x4563918244f40000\n        /* \"FundMe.sol\":500:529  msg.value.getConversionRate() */\n      tag_43\n        /* \"FundMe.sol\":500:509  msg.value */\n      callvalue\n        /* \"FundMe.sol\":500:527  msg.value.getConversionRate */\n      tag_44\n        /* \"FundMe.sol\":500:529  msg.value.getConversionRate() */\n      jump\t// in\n    tag_43:\n        /* \"FundMe.sol\":500:544  msg.value.getConversionRate() >= MINIMUN_USD */\n      lt\n      iszero\n        /* \"FundMe.sol\":492:571  require(msg.value.getConversionRate() >= MINIMUN_USD, \"Didn't send enough ETH\") */\n      tag_45\n      jumpi\n      mload(0x40)\n      0x08c379a000000000000000000000000000000000000000000000000000000000\n      dup2\n      mstore\n      0x04\n      add\n      tag_46\n      swap1\n      tag_47\n      jump\t// in\n    tag_46:\n      mload(0x40)\n      dup1\n      swap2\n      sub\n      swap1\n      revert\n    tag_45:\n        /* \"FundMe.sol\":581:588  funders */\n      0x00\n        /* \"FundMe.sol\":594:604  msg.sender */\n      caller\n        /* \"FundMe.sol\":581:605  funders.push(msg.sender) */\n      swap1\n      dup1\n      0x01\n      dup2\n      sload\n      add\n      dup1\n      dup3\n      sstore\n      dup1\n      swap2\n      pop\n      pop\n      0x01\n      swap1\n      sub\n      swap1\n      0x00\n      mstore\n      keccak256(0x00, 0x20)\n      add\n      0x00\n      swap1\n      swap2\n      swap1\n      swap2\n      swap1\n      swap2\n      0x0100\n      exp\n      dup2\n      sload\n      dup2\n      0xffffffffffffffffffffffffffffffffffffffff\n      mul\n      not\n      and\n      swap1\n      dup4\n      0xffffffffffffffffffffffffffffffffffffffff\n      and\n      mul\n      or\n      swap1\n      sstore\n      pop\n        /* \"FundMe.sol\":652:661  msg.value */\n      callvalue\n        /* \"FundMe.sol\":615:636  addressToAmountFunded */\n      0x01\n        /* \"FundMe.sol\":615:648  addressToAmountFunded[msg.sender] */\n      0x00\n        /* \"FundMe.sol\":637:647  msg.sender */\n      caller\n        /* \"FundMe.sol\":615:648  addressToAmountFunded[msg.sender] */\n      0xffffffffffffffffffffffffffffffffffffffff\n      and\n      0xffffffffffffffffffffffffffffffffffffffff\n      and\n      dup2\n      mstore\n      0x20\n      add\n      swap1\n      dup2\n      mstore\n      0x20\n      add\n      0x00\n      keccak256\n      0x00\n        /* \"FundMe.sol\":615:661  addressToAmountFunded[msg.sender] += msg.value */\n      dup3\n      dup3\n      sload\n      tag_49\n      swap2\n      swap1\n      tag_50\n      jump\t// in\n    tag_49:\n      swap3\n      pop\n      pop\n      dup2\n      swap1\n      sstore\n      pop\n        /* \"FundMe.sol\":451:668  function fund() public payable {... */\n      jump\t// out\n        /* \"FundMe.sol\":195:237  uint256 public constant MINIMUN_USD = 5e18 */\n    tag_18:\n        /* \"FundMe.sol\":233:237  5e18 */\n      0x4563918244f40000\n        /* \"FundMe.sol\":195:237  uint256 public constant MINIMUN_USD = 5e18 */\n      dup2\n      jump\t// out\n        /* \"FundMe.sol\":674:1103  function withdraw() public onlyOwner {... */\n    tag_23:\n        /* \"FundMe.sol\":1157:1164  i_owner */\n      immutable(\"0xd9670a00d025e59e1bd58d53874bea4ab34fea782716e2c168e89a3c8452d3bb\")\n        /* \"FundMe.sol\":1143:1164  msg.sender != i_owner */\n      0xffffffffffffffffffffffffffffffffffffffff\n      and\n        /* \"FundMe.sol\":1143:1153  msg.sender */\n      caller\n        /* \"FundMe.sol\":1143:1164  msg.sender != i_owner */\n      0xffffffffffffffffffffffffffffffffffffffff\n      and\n      eq\n        /* \"FundMe.sol\":1140:1187  if(msg.sender != i_owner) { revert NotOwner();} */\n      tag_52\n      jumpi\n        /* \"FundMe.sol\":1175:1185  NotOwner() */\n      mload(0x40)\n      0x30cd747100000000000000000000000000000000000000000000000000000000\n      dup2\n      mstore\n      0x04\n      add\n      mload(0x40)\n      dup1\n      swap2\n      sub\n      swap1\n      revert\n        /* \"FundMe.sol\":1140:1187  if(msg.sender != i_owner) { revert NotOwner();} */\n    tag_52:\n        /* \"FundMe.sol\":750:759  uint256 i */\n      0x00\n        /* \"FundMe.sol\":746:890  for(uint256 i = 0; i < funders.length; i++) {... */\n    tag_54:\n        /* \"FundMe.sol\":769:776  funders */\n      0x00\n        /* \"FundMe.sol\":769:783  funders.length */\n      dup1\n      sload\n      swap1\n      pop\n        /* \"FundMe.sol\":765:766  i */\n      dup2\n        /* \"FundMe.sol\":765:783  i < funders.length */\n      lt\n        /* \"FundMe.sol\":746:890  for(uint256 i = 0; i < funders.length; i++) {... */\n      iszero\n      tag_55\n      jumpi\n        /* \"FundMe.sol\":804:818  address funder */\n      0x00\n        /* \"FundMe.sol\":821:828  funders */\n      dup1\n        /* \"FundMe.sol\":829:830  i */\n      dup3\n        /* \"FundMe.sol\":821:831  funders[i] */\n      dup2\n      sload\n      dup2\n      lt\n      tag_57\n      jumpi\n      tag_58\n      tag_59\n      jump\t// in\n    tag_58:\n    tag_57:\n      swap1\n      0x00\n      mstore\n      keccak256(0x00, 0x20)\n      add\n      0x00\n      swap1\n      sload\n      swap1\n      0x0100\n      exp\n      swap1\n      div\n      0xffffffffffffffffffffffffffffffffffffffff\n      and\n        /* \"FundMe.sol\":804:831  address funder = funders[i] */\n      swap1\n      pop\n        /* \"FundMe.sol\":877:878  0 */\n      0x00\n        /* \"FundMe.sol\":845:866  addressToAmountFunded */\n      0x01\n        /* \"FundMe.sol\":845:874  addressToAmountFunded[funder] */\n      0x00\n        /* \"FundMe.sol\":867:873  funder */\n      dup4\n        /* \"FundMe.sol\":845:874  addressToAmountFunded[funder] */\n      0xffffffffffffffffffffffffffffffffffffffff\n      and\n      0xffffffffffffffffffffffffffffffffffffffff\n      and\n      dup2\n      mstore\n      0x20\n      add\n      swap1\n      dup2\n      mstore\n      0x20\n      add\n      0x00\n      keccak256\n        /* \"FundMe.sol\":845:878  addressToAmountFunded[funder] = 0 */\n      dup2\n      swap1\n      sstore\n      pop\n        /* \"FundMe.sol\":790:890  {... */\n      pop\n        /* \"FundMe.sol\":785:788  i++ */\n      dup1\n      dup1\n      0x01\n      add\n      swap2\n      pop\n      pop\n        /* \"FundMe.sol\":746:890  for(uint256 i = 0; i < funders.length; i++) {... */\n      jump(tag_54)\n    tag_55:\n      pop\n        /* \"FundMe.sol\":954:955  0 */\n      0x00\n        /* \"FundMe.sol\":940:956  new address[](0) */\n      0xffffffffffffffff\n      dup2\n      gt\n      iszero\n      tag_61\n      jumpi\n      tag_62\n      tag_63\n      jump\t// in\n    tag_62:\n    tag_61:\n      mload(0x40)\n      swap1\n      dup1\n      dup3\n      mstore\n      dup1\n      0x20\n      mul\n      0x20\n      add\n      dup3\n      add\n      0x40\n      mstore\n      dup1\n      iszero\n      tag_64\n      jumpi\n      dup2\n      0x20\n      add\n      0x20\n      dup3\n      mul\n      dup1\n      calldatasize\n      dup4\n      calldatacopy\n      dup1\n      dup3\n      add\n      swap2\n      pop\n      pop\n      swap1\n      pop\n    tag_64:\n      pop\n        /* \"FundMe.sol\":930:937  funders */\n      0x00\n        /* \"FundMe.sol\":930:956  funders = new address[](0) */\n      swap1\n      dup1\n      mload\n      swap1\n      0x20\n      add\n      swap1\n      tag_65\n      swap3\n      swap2\n      swap1\n      tag_66\n      jump\t// in\n    tag_65:\n      pop\n        /* \"FundMe.sol\":967:983  bool callSuccess */\n      0x00\n        /* \"FundMe.sol\":997:1007  msg.sender */\n      caller\n        /* \"FundMe.sol\":989:1013  payable(msg.sender).call */\n      0xffffffffffffffffffffffffffffffffffffffff\n      and\n        /* \"FundMe.sol\":1021:1042  address(this).balance */\n      selfbalance\n        /* \"FundMe.sol\":989:1047  payable(msg.sender).call{value: address(this).balance}(\"\") */\n      mload(0x40)\n      tag_67\n      swap1\n      tag_68\n      jump\t// in\n    tag_67:\n      0x00\n      mload(0x40)\n      dup1\n      dup4\n      sub\n      dup2\n      dup6\n      dup8\n      gas\n      call\n      swap3\n      pop\n      pop\n      pop\n      returndatasize\n      dup1\n      0x00\n      dup2\n      eq\n      tag_71\n      jumpi\n      mload(0x40)\n      swap2\n      pop\n      and(add(returndatasize, 0x3f), not(0x1f))\n      dup3\n      add\n      0x40\n      mstore\n      returndatasize\n      dup3\n      mstore\n      returndatasize\n      0x00\n      0x20\n      dup5\n      add\n      returndatacopy\n      jump(tag_70)\n    tag_71:\n      0x60\n      swap2\n      pop\n    tag_70:\n      pop\n        /* \"FundMe.sol\":966:1047  (bool callSuccess, ) = payable(msg.sender).call{value: address(this).balance}(\"\") */\n      pop\n      swap1\n      pop\n        /* \"FundMe.sol\":1065:1076  callSuccess */\n      dup1\n        /* \"FundMe.sol\":1057:1096  require(callSuccess, \"Withdraw failed\") */\n      tag_72\n      jumpi\n      mload(0x40)\n      0x08c379a000000000000000000000000000000000000000000000000000000000\n      dup2\n      mstore\n      0x04\n      add\n      tag_73\n      swap1\n      tag_74\n      jump\t// in\n    tag_73:\n      mload(0x40)\n      dup1\n      swap2\n      sub\n      swap1\n      revert\n    tag_72:\n        /* \"FundMe.sol\":711:1103  {... */\n      pop\n        /* \"FundMe.sol\":674:1103  function withdraw() public onlyOwner {... */\n      jump\t// out\n        /* \"FundMe.sol\":311:387  mapping(address funder => uint256 amountFunded) public addressToAmountFunded */\n    tag_28:\n      mstore(0x20, 0x01)\n      dup1\n      0x00\n      mstore\n      keccak256(0x00, 0x40)\n      0x00\n      swap2\n      pop\n      swap1\n      pop\n      sload\n      dup2\n      jump\t// out\n        /* \"FundMe.sol\":273:305  address public immutable i_owner */\n    tag_33:\n      immutable(\"0xd9670a00d025e59e1bd58d53874bea4ab34fea782716e2c168e89a3c8452d3bb\")\n      dup2\n      jump\t// out\n        /* \"FundMe.sol\":243:267  address[] public funders */\n    tag_40:\n      0x00\n      dup2\n      dup2\n      sload\n      dup2\n      lt\n      tag_75\n      jumpi\n      0x00\n      dup1\n      revert\n    tag_75:\n      swap1\n      0x00\n      mstore\n      keccak256(0x00, 0x20)\n      add\n      0x00\n      swap2\n      pop\n      sload\n      swap1\n      0x0100\n      exp\n      swap1\n      div\n      0xffffffffffffffffffffffffffffffffffffffff\n      and\n      dup2\n      jump\t// out\n        /* \"PriceConverter.sol\":586:804  function getConversionRate(uint256 ethAmount) internal view returns(uint256) {... */\n    tag_44:\n        /* \"PriceConverter.sol\":654:661  uint256 */\n      0x00\n        /* \"PriceConverter.sol\":673:689  uint256 ethPrice */\n      dup1\n        /* \"PriceConverter.sol\":692:702  getPrice() */\n      tag_78\n        /* \"PriceConverter.sol\":692:700  getPrice */\n      tag_79\n        /* \"PriceConverter.sol\":692:702  getPrice() */\n      jump\t// in\n    tag_78:\n        /* \"PriceConverter.sol\":673:702  uint256 ethPrice = getPrice() */\n      swap1\n      pop\n        /* \"PriceConverter.sol\":712:734  uint256 ethAmountInUsd */\n      0x00\n        /* \"PriceConverter.sol\":762:766  1e18 */\n      0x0de0b6b3a7640000\n        /* \"PriceConverter.sol\":749:758  ethAmount */\n      dup5\n        /* \"PriceConverter.sol\":738:746  ethPrice */\n      dup4\n        /* \"PriceConverter.sol\":738:758  ethPrice * ethAmount */\n      tag_80\n      swap2\n      swap1\n      tag_81\n      jump\t// in\n    tag_80:\n        /* \"PriceConverter.sol\":737:766  (ethPrice * ethAmount) / 1e18 */\n      tag_82\n      swap2\n      swap1\n      tag_83\n      jump\t// in\n    tag_82:\n        /* \"PriceConverter.sol\":712:766  uint256 ethAmountInUsd = (ethPrice * ethAmount) / 1e18 */\n      swap1\n      pop\n        /* \"PriceConverter.sol\":783:797  ethAmountInUsd */\n      dup1\n        /* \"PriceConverter.sol\":776:797  return ethAmountInUsd */\n      swap3\n      pop\n      pop\n      pop\n        /* \"PriceConverter.sol\":586:804  function getConversionRate(uint256 ethAmount) internal view returns(uint256) {... */\n      swap2\n      swap1\n      pop\n      jump\t// out\n        /* \"PriceConverter.sol\":205:580  function getPrice() internal view returns(uint256) {... */\n    tag_79:\n        /* \"PriceConverter.sol\":247:254  uint256 */\n      0x00\n        /* \"PriceConverter.sol\":321:352  AggregatorV3Interface priceFeed */\n      dup1\n        /* \"PriceConverter.sol\":377:419  0x694AA1769357215DE4FAC081bf1f309aDC325306 */\n      0x694aa1769357215de4fac081bf1f309adc325306\n        /* \"PriceConverter.sol\":321:420  AggregatorV3Interface priceFeed = AggregatorV3Interface(0x694AA1769357215DE4FAC081bf1f309aDC325306) */\n      swap1\n      pop\n        /* \"PriceConverter.sol\":433:445  int256 price */\n      0x00\n        /* \"PriceConverter.sol\":452:461  priceFeed */\n      dup2\n        /* \"PriceConverter.sol\":452:477  priceFeed.latestRoundData */\n      0xffffffffffffffffffffffffffffffffffffffff\n      and\n      0xfeaf968c\n        /* \"PriceConverter.sol\":452:479  priceFeed.latestRoundData() */\n      mload(0x40)\n      dup2\n      0xffffffff\n      and\n      0xe0\n      shl\n      dup2\n      mstore\n      0x04\n      add\n      0xa0\n      mload(0x40)\n      dup1\n      dup4\n      sub\n      dup2\n      dup7\n      gas\n      staticcall\n      iszero\n      dup1\n      iszero\n      tag_86\n      jumpi\n      returndatasize\n      0x00\n      dup1\n      returndatacopy\n      revert(0x00, returndatasize)\n    tag_86:\n      pop\n      pop\n      pop\n      pop\n      mload(0x40)\n      returndatasize\n      not(0x1f)\n      0x1f\n      dup3\n      add\n      and\n      dup3\n      add\n      dup1\n      0x40\n      mstore\n      pop\n      dup2\n      add\n      swap1\n      tag_87\n      swap2\n      swap1\n      tag_88\n      jump\t// in\n    tag_87:\n        /* \"PriceConverter.sol\":430:479  (, int256 price,,,) = priceFeed.latestRoundData() */\n      pop\n      pop\n      pop\n      swap2\n      pop\n      pop\n        /* \"PriceConverter.sol\":568:572  1e10 */\n      0x02540be400\n        /* \"PriceConverter.sol\":560:565  price */\n      dup2\n        /* \"PriceConverter.sol\":560:572  price * 1e10 */\n      tag_89\n      swap2\n      swap1\n      tag_90\n      jump\t// in\n    tag_89:\n        /* \"PriceConverter.sol\":545:573  return uint256(price * 1e10) */\n      swap3\n      pop\n      pop\n      pop\n        /* \"PriceConverter.sol\":205:580  function getPrice() internal view returns(uint256) {... */\n      swap1\n      jump\t// out\n    tag_66:\n      dup3\n      dup1\n      sload\n      dup3\n      dup3\n      sstore\n      swap1\n      0x00\n      mstore\n      keccak256(0x00, 0x20)\n      swap1\n      dup2\n      add\n      swap3\n      dup3\n      iszero\n      tag_91\n      jumpi\n      swap2\n      0x20\n      mul\n      dup3\n      add\n    tag_92:\n      dup3\n      dup2\n      gt\n      iszero\n      tag_93\n      jumpi\n      dup3\n      mload\n      dup3\n      exp(0x0100, 0x00)\n      dup2\n      sload\n      dup2\n      0xffffffffffffffffffffffffffffffffffffffff\n      mul\n      not\n      and\n      swap1\n      dup4\n      0xffffffffffffffffffffffffffffffffffffffff\n      and\n      mul\n      or\n      swap1\n      sstore\n      pop\n      swap2\n      0x20\n      add\n      swap2\n      swap1\n      0x01\n      add\n      swap1\n      jump(tag_92)\n    tag_93:\n    tag_91:\n      pop\n      swap1\n      pop\n      tag_94\n      swap2\n      swap1\n      tag_95\n      jump\t// in\n    tag_94:\n      pop\n      swap1\n      jump\t// out\n    tag_95:\n    tag_96:\n      dup1\n      dup3\n      gt\n      iszero\n      tag_97\n      jumpi\n      0x00\n      dup2\n      0x00\n      swap1\n      sstore\n      pop\n      0x01\n      add\n      jump(tag_96)\n    tag_97:\n      pop\n      swap1\n      jump\t// out\n        /* \"#utility.yul\":7:84   */\n    tag_98:\n        /* \"#utility.yul\":44:51   */\n      0x00\n        /* \"#utility.yul\":73:78   */\n      dup2\n        /* \"#utility.yul\":62:78   */\n      swap1\n      pop\n        /* \"#utility.yul\":7:84   */\n      swap2\n      swap1\n      pop\n      jump\t// out\n        /* \"#utility.yul\":90:208   */\n    tag_99:\n        /* \"#utility.yul\":177:201   */\n      tag_130\n        /* \"#utility.yul\":195:200   */\n      dup2\n        /* \"#utility.yul\":177:201   */\n      tag_98\n      jump\t// in\n    tag_130:\n        /* \"#utility.yul\":172:175   */\n      dup3\n        /* \"#utility.yul\":165:202   */\n      mstore\n        /* \"#utility.yul\":90:208   */\n      pop\n      pop\n      jump\t// out\n        /* \"#utility.yul\":214:436   */\n    tag_20:\n        /* \"#utility.yul\":307:311   */\n      0x00\n        /* \"#utility.yul\":345:347   */\n      0x20\n        /* \"#utility.yul\":334:343   */\n      dup3\n        /* \"#utility.yul\":330:348   */\n      add\n        /* \"#utility.yul\":322:348   */\n      swap1\n      pop\n        /* \"#utility.yul\":358:429   */\n      tag_132\n        /* \"#utility.yul\":426:427   */\n      0x00\n        /* \"#utility.yul\":415:424   */\n      dup4\n        /* \"#utility.yul\":411:428   */\n      add\n        /* \"#utility.yul\":402:408   */\n      dup5\n        /* \"#utility.yul\":358:429   */\n      tag_99\n      jump\t// in\n    tag_132:\n        /* \"#utility.yul\":214:436   */\n      swap3\n      swap2\n      pop\n      pop\n      jump\t// out\n        /* \"#utility.yul\":523:640   */\n    tag_101:\n        /* \"#utility.yul\":632:633   */\n      0x00\n        /* \"#utility.yul\":629:630   */\n      dup1\n        /* \"#utility.yul\":622:634   */\n      revert\n        /* \"#utility.yul\":769:895   */\n    tag_103:\n        /* \"#utility.yul\":806:813   */\n      0x00\n        /* \"#utility.yul\":846:888   */\n      0xffffffffffffffffffffffffffffffffffffffff\n        /* \"#utility.yul\":839:844   */\n      dup3\n        /* \"#utility.yul\":835:889   */\n      and\n        /* \"#utility.yul\":824:889   */\n      swap1\n      pop\n        /* \"#utility.yul\":769:895   */\n      swap2\n      swap1\n      pop\n      jump\t// out\n        /* \"#utility.yul\":901:997   */\n    tag_104:\n        /* \"#utility.yul\":938:945   */\n      0x00\n        /* \"#utility.yul\":967:991   */\n      tag_138\n        /* \"#utility.yul\":985:990   */\n      dup3\n        /* \"#utility.yul\":967:991   */\n      tag_103\n      jump\t// in\n    tag_138:\n        /* \"#utility.yul\":956:991   */\n      swap1\n      pop\n        /* \"#utility.yul\":901:997   */\n      swap2\n      swap1\n      pop\n      jump\t// out\n        /* \"#utility.yul\":1003:1125   */\n    tag_105:\n        /* \"#utility.yul\":1076:1100   */\n      tag_140\n        /* \"#utility.yul\":1094:1099   */\n      dup2\n        /* \"#utility.yul\":1076:1100   */\n      tag_104\n      jump\t// in\n    tag_140:\n        /* \"#utility.yul\":1069:1074   */\n      dup2\n        /* \"#utility.yul\":1066:1101   */\n      eq\n        /* \"#utility.yul\":1056:1119   */\n      tag_141\n      jumpi\n        /* \"#utility.yul\":1115:1116   */\n      0x00\n        /* \"#utility.yul\":1112:1113   */\n      dup1\n        /* \"#utility.yul\":1105:1117   */\n      revert\n        /* \"#utility.yul\":1056:1119   */\n    tag_141:\n        /* \"#utility.yul\":1003:1125   */\n      pop\n      jump\t// out\n        /* \"#utility.yul\":1131:1270   */\n    tag_106:\n        /* \"#utility.yul\":1177:1182   */\n      0x00\n        /* \"#utility.yul\":1215:1221   */\n      dup2\n        /* \"#utility.yul\":1202:1222   */\n      calldataload\n        /* \"#utility.yul\":1193:1222   */\n      swap1\n      pop\n        /* \"#utility.yul\":1231:1264   */\n      tag_143\n        /* \"#utility.yul\":1258:1263   */\n      dup2\n        /* \"#utility.yul\":1231:1264   */\n      tag_105\n      jump\t// in\n    tag_143:\n        /* \"#utility.yul\":1131:1270   */\n      swap3\n      swap2\n      pop\n      pop\n      jump\t// out\n        /* \"#utility.yul\":1276:1605   */\n    tag_27:\n        /* \"#utility.yul\":1335:1341   */\n      0x00\n        /* \"#utility.yul\":1384:1386   */\n      0x20\n        /* \"#utility.yul\":1372:1381   */\n      dup3\n        /* \"#utility.yul\":1363:1370   */\n      dup5\n        /* \"#utility.yul\":1359:1382   */\n      sub\n        /* \"#utility.yul\":1355:1387   */\n      slt\n        /* \"#utility.yul\":1352:1471   */\n      iszero\n      tag_145\n      jumpi\n        /* \"#utility.yul\":1390:1469   */\n      tag_146\n      tag_101\n      jump\t// in\n    tag_146:\n        /* \"#utility.yul\":1352:1471   */\n    tag_145:\n        /* \"#utility.yul\":1510:1511   */\n      0x00\n        /* \"#utility.yul\":1535:1588   */\n      tag_147\n        /* \"#utility.yul\":1580:1587   */\n      dup5\n        /* \"#utility.yul\":1571:1577   */\n      dup3\n        /* \"#utility.yul\":1560:1569   */\n      dup6\n        /* \"#utility.yul\":1556:1578   */\n      add\n        /* \"#utility.yul\":1535:1588   */\n      tag_106\n      jump\t// in\n    tag_147:\n        /* \"#utility.yul\":1525:1588   */\n      swap2\n      pop\n        /* \"#utility.yul\":1481:1598   */\n      pop\n        /* \"#utility.yul\":1276:1605   */\n      swap3\n      swap2\n      pop\n      pop\n      jump\t// out\n        /* \"#utility.yul\":1611:1729   */\n    tag_107:\n        /* \"#utility.yul\":1698:1722   */\n      tag_149\n        /* \"#utility.yul\":1716:1721   */\n      dup2\n        /* \"#utility.yul\":1698:1722   */\n      tag_104\n      jump\t// in\n    tag_149:\n        /* \"#utility.yul\":1693:1696   */\n      dup3\n        /* \"#utility.yul\":1686:1723   */\n      mstore\n        /* \"#utility.yul\":1611:1729   */\n      pop\n      pop\n      jump\t// out\n        /* \"#utility.yul\":1735:1957   */\n    tag_35:\n        /* \"#utility.yul\":1828:1832   */\n      0x00\n        /* \"#utility.yul\":1866:1868   */\n      0x20\n        /* \"#utility.yul\":1855:1864   */\n      dup3\n        /* \"#utility.yul\":1851:1869   */\n      add\n        /* \"#utility.yul\":1843:1869   */\n      swap1\n      pop\n        /* \"#utility.yul\":1879:1950   */\n      tag_151\n        /* \"#utility.yul\":1947:1948   */\n      0x00\n        /* \"#utility.yul\":1936:1945   */\n      dup4\n        /* \"#utility.yul\":1932:1949   */\n      add\n        /* \"#utility.yul\":1923:1929   */\n      dup5\n        /* \"#utility.yul\":1879:1950   */\n      tag_107\n      jump\t// in\n    tag_151:\n        /* \"#utility.yul\":1735:1957   */\n      swap3\n      swap2\n      pop\n      pop\n      jump\t// out\n        /* \"#utility.yul\":1963:2085   */\n    tag_108:\n        /* \"#utility.yul\":2036:2060   */\n      tag_153\n        /* \"#utility.yul\":2054:2059   */\n      dup2\n        /* \"#utility.yul\":2036:2060   */\n      tag_98\n      jump\t// in\n    tag_153:\n        /* \"#utility.yul\":2029:2034   */\n      dup2\n        /* \"#utility.yul\":2026:2061   */\n      eq\n        /* \"#utility.yul\":2016:2079   */\n      tag_154\n      jumpi\n        /* \"#utility.yul\":2075:2076   */\n      0x00\n        /* \"#utility.yul\":2072:2073   */\n      dup1\n        /* \"#utility.yul\":2065:2077   */\n      revert\n        /* \"#utility.yul\":2016:2079   */\n    tag_154:\n        /* \"#utility.yul\":1963:2085   */\n      pop\n      jump\t// out\n        /* \"#utility.yul\":2091:2230   */\n    tag_109:\n        /* \"#utility.yul\":2137:2142   */\n      0x00\n        /* \"#utility.yul\":2175:2181   */\n      dup2\n        /* \"#utility.yul\":2162:2182   */\n      calldataload\n        /* \"#utility.yul\":2153:2182   */\n      swap1\n      pop\n        /* \"#utility.yul\":2191:2224   */\n      tag_156\n        /* \"#utility.yul\":2218:2223   */\n      dup2\n        /* \"#utility.yul\":2191:2224   */\n      tag_108\n      jump\t// in\n    tag_156:\n        /* \"#utility.yul\":2091:2230   */\n      swap3\n      swap2\n      pop\n      pop\n      jump\t// out\n        /* \"#utility.yul\":2236:2565   */\n    tag_39:\n        /* \"#utility.yul\":2295:2301   */\n      0x00\n        /* \"#utility.yul\":2344:2346   */\n      0x20\n        /* \"#utility.yul\":2332:2341   */\n      dup3\n        /* \"#utility.yul\":2323:2330   */\n      dup5\n        /* \"#utility.yul\":2319:2342   */\n      sub\n        /* \"#utility.yul\":2315:2347   */\n      slt\n        /* \"#utility.yul\":2312:2431   */\n      iszero\n      tag_158\n      jumpi\n        /* \"#utility.yul\":2350:2429   */\n      tag_159\n      tag_101\n      jump\t// in\n    tag_159:\n        /* \"#utility.yul\":2312:2431   */\n    tag_158:\n        /* \"#utility.yul\":2470:2471   */\n      0x00\n        /* \"#utility.yul\":2495:2548   */\n      tag_160\n        /* \"#utility.yul\":2540:2547   */\n      dup5\n        /* \"#utility.yul\":2531:2537   */\n      dup3\n        /* \"#utility.yul\":2520:2529   */\n      dup6\n        /* \"#utility.yul\":2516:2538   */\n      add\n        /* \"#utility.yul\":2495:2548   */\n      tag_109\n      jump\t// in\n    tag_160:\n        /* \"#utility.yul\":2485:2548   */\n      swap2\n      pop\n        /* \"#utility.yul\":2441:2558   */\n      pop\n        /* \"#utility.yul\":2236:2565   */\n      swap3\n      swap2\n      pop\n      pop\n      jump\t// out\n        /* \"#utility.yul\":2571:2740   */\n    tag_110:\n        /* \"#utility.yul\":2655:2666   */\n      0x00\n        /* \"#utility.yul\":2689:2695   */\n      dup3\n        /* \"#utility.yul\":2684:2687   */\n      dup3\n        /* \"#utility.yul\":2677:2696   */\n      mstore\n        /* \"#utility.yul\":2729:2733   */\n      0x20\n        /* \"#utility.yul\":2724:2727   */\n      dup3\n        /* \"#utility.yul\":2720:2734   */\n      add\n        /* \"#utility.yul\":2705:2734   */\n      swap1\n      pop\n        /* \"#utility.yul\":2571:2740   */\n      swap3\n      swap2\n      pop\n      pop\n      jump\t// out\n        /* \"#utility.yul\":2746:2918   */\n    tag_111:\n        /* \"#utility.yul\":2886:2910   */\n      0x4469646e27742073656e6420656e6f7567682045544800000000000000000000\n        /* \"#utility.yul\":2882:2883   */\n      0x00\n        /* \"#utility.yul\":2874:2880   */\n      dup3\n        /* \"#utility.yul\":2870:2884   */\n      add\n        /* \"#utility.yul\":2863:2911   */\n      mstore\n        /* \"#utility.yul\":2746:2918   */\n      pop\n      jump\t// out\n        /* \"#utility.yul\":2924:3290   */\n    tag_112:\n        /* \"#utility.yul\":3066:3069   */\n      0x00\n        /* \"#utility.yul\":3087:3154   */\n      tag_164\n        /* \"#utility.yul\":3151:3153   */\n      0x16\n        /* \"#utility.yul\":3146:3149   */\n      dup4\n        /* \"#utility.yul\":3087:3154   */\n      tag_110\n      jump\t// in\n    tag_164:\n        /* \"#utility.yul\":3080:3154   */\n      swap2\n      pop\n        /* \"#utility.yul\":3163:3256   */\n      tag_165\n        /* \"#utility.yul\":3252:3255   */\n      dup3\n        /* \"#utility.yul\":3163:3256   */\n      tag_111\n      jump\t// in\n    tag_165:\n        /* \"#utility.yul\":3281:3283   */\n      0x20\n        /* \"#utility.yul\":3276:3279   */\n      dup3\n        /* \"#utility.yul\":3272:3284   */\n      add\n        /* \"#utility.yul\":3265:3284   */\n      swap1\n      pop\n        /* \"#utility.yul\":2924:3290   */\n      swap2\n      swap1\n      pop\n      jump\t// out\n        /* \"#utility.yul\":3296:3715   */\n    tag_47:\n        /* \"#utility.yul\":3462:3466   */\n      0x00\n        /* \"#utility.yul\":3500:3502   */\n      0x20\n        /* \"#utility.yul\":3489:3498   */\n      dup3\n        /* \"#utility.yul\":3485:3503   */\n      add\n        /* \"#utility.yul\":3477:3503   */\n      swap1\n      pop\n        /* \"#utility.yul\":3549:3558   */\n      dup2\n        /* \"#utility.yul\":3543:3547   */\n      dup2\n        /* \"#utility.yul\":3539:3559   */\n      sub\n        /* \"#utility.yul\":3535:3536   */\n      0x00\n        /* \"#utility.yul\":3524:3533   */\n      dup4\n        /* \"#utility.yul\":3520:3537   */\n      add\n        /* \"#utility.yul\":3513:3560   */\n      mstore\n        /* \"#utility.yul\":3577:3708   */\n      tag_167\n        /* \"#utility.yul\":3703:3707   */\n      dup2\n        /* \"#utility.yul\":3577:3708   */\n      tag_112\n      jump\t// in\n    tag_167:\n        /* \"#utility.yul\":3569:3708   */\n      swap1\n      pop\n        /* \"#utility.yul\":3296:3715   */\n      swap2\n      swap1\n      pop\n      jump\t// out\n        /* \"#utility.yul\":3721:3901   */\n    tag_113:\n        /* \"#utility.yul\":3769:3846   */\n      0x4e487b7100000000000000000000000000000000000000000000000000000000\n        /* \"#utility.yul\":3766:3767   */\n      0x00\n        /* \"#utility.yul\":3759:3847   */\n      mstore\n        /* \"#utility.yul\":3866:3870   */\n      0x11\n        /* \"#utility.yul\":3863:3864   */\n      0x04\n        /* \"#utility.yul\":3856:3871   */\n      mstore\n        /* \"#utility.yul\":3890:3894   */\n      0x24\n        /* \"#utility.yul\":3887:3888   */\n      0x00\n        /* \"#utility.yul\":3880:3895   */\n      revert\n        /* \"#utility.yul\":3907:4098   */\n    tag_50:\n        /* \"#utility.yul\":3947:3950   */\n      0x00\n        /* \"#utility.yul\":3966:3986   */\n      tag_170\n        /* \"#utility.yul\":3984:3985   */\n      dup3\n        /* \"#utility.yul\":3966:3986   */\n      tag_98\n      jump\t// in\n    tag_170:\n        /* \"#utility.yul\":3961:3986   */\n      swap2\n      pop\n        /* \"#utility.yul\":4000:4020   */\n      tag_171\n        /* \"#utility.yul\":4018:4019   */\n      dup4\n        /* \"#utility.yul\":4000:4020   */\n      tag_98\n      jump\t// in\n    tag_171:\n        /* \"#utility.yul\":3995:4020   */\n      swap3\n      pop\n        /* \"#utility.yul\":4043:4044   */\n      dup3\n        /* \"#utility.yul\":4040:4041   */\n      dup3\n        /* \"#utility.yul\":4036:4045   */\n      add\n        /* \"#utility.yul\":4029:4045   */\n      swap1\n      pop\n        /* \"#utility.yul\":4064:4067   */\n      dup1\n        /* \"#utility.yul\":4061:4062   */\n      dup3\n        /* \"#utility.yul\":4058:4068   */\n      gt\n        /* \"#utility.yul\":4055:4091   */\n      iszero\n      tag_172\n      jumpi\n        /* \"#utility.yul\":4071:4089   */\n      tag_173\n      tag_113\n      jump\t// in\n    tag_173:\n        /* \"#utility.yul\":4055:4091   */\n    tag_172:\n        /* \"#utility.yul\":3907:4098   */\n      swap3\n      swap2\n      pop\n      pop\n      jump\t// out\n        /* \"#utility.yul\":4104:4284   */\n    tag_59:\n        /* \"#utility.yul\":4152:4229   */\n      0x4e487b7100000000000000000000000000000000000000000000000000000000\n        /* \"#utility.yul\":4149:4150   */\n      0x00\n        /* \"#utility.yul\":4142:4230   */\n      mstore\n        /* \"#utility.yul\":4249:4253   */\n      0x32\n        /* \"#utility.yul\":4246:4247   */\n      0x04\n        /* \"#utility.yul\":4239:4254   */\n      mstore\n        /* \"#utility.yul\":4273:4277   */\n      0x24\n        /* \"#utility.yul\":4270:4271   */\n      0x00\n        /* \"#utility.yul\":4263:4278   */\n      revert\n        /* \"#utility.yul\":4290:4470   */\n    tag_63:\n        /* \"#utility.yul\":4338:4415   */\n      0x4e487b7100000000000000000000000000000000000000000000000000000000\n        /* \"#utility.yul\":4335:4336   */\n      0x00\n        /* \"#utility.yul\":4328:4416   */\n      mstore\n        /* \"#utility.yul\":4435:4439   */\n      0x41\n        /* \"#utility.yul\":4432:4433   */\n      0x04\n        /* \"#utility.yul\":4425:4440   */\n      mstore\n        /* \"#utility.yul\":4459:4463   */\n      0x24\n        /* \"#utility.yul\":4456:4457   */\n      0x00\n        /* \"#utility.yul\":4449:4464   */\n      revert\n        /* \"#utility.yul\":4476:4623   */\n    tag_114:\n        /* \"#utility.yul\":4577:4588   */\n      0x00\n        /* \"#utility.yul\":4614:4617   */\n      dup2\n        /* \"#utility.yul\":4599:4617   */\n      swap1\n      pop\n        /* \"#utility.yul\":4476:4623   */\n      swap3\n      swap2\n      pop\n      pop\n      jump\t// out\n        /* \"#utility.yul\":4629:4743   */\n    tag_115:\n      pop\n      jump\t// out\n        /* \"#utility.yul\":4749:5147   */\n    tag_116:\n        /* \"#utility.yul\":4908:4911   */\n      0x00\n        /* \"#utility.yul\":4929:5012   */\n      tag_179\n        /* \"#utility.yul\":5010:5011   */\n      0x00\n        /* \"#utility.yul\":5005:5008   */\n      dup4\n        /* \"#utility.yul\":4929:5012   */\n      tag_114\n      jump\t// in\n    tag_179:\n        /* \"#utility.yul\":4922:5012   */\n      swap2\n      pop\n        /* \"#utility.yul\":5021:5114   */\n      tag_180\n        /* \"#utility.yul\":5110:5113   */\n      dup3\n        /* \"#utility.yul\":5021:5114   */\n      tag_115\n      jump\t// in\n    tag_180:\n        /* \"#utility.yul\":5139:5140   */\n      0x00\n        /* \"#utility.yul\":5134:5137   */\n      dup3\n        /* \"#utility.yul\":5130:5141   */\n      add\n        /* \"#utility.yul\":5123:5141   */\n      swap1\n      pop\n        /* \"#utility.yul\":4749:5147   */\n      swap2\n      swap1\n      pop\n      jump\t// out\n        /* \"#utility.yul\":5153:5532   */\n    tag_68:\n        /* \"#utility.yul\":5337:5340   */\n      0x00\n        /* \"#utility.yul\":5359:5506   */\n      tag_182\n        /* \"#utility.yul\":5502:5505   */\n      dup3\n        /* \"#utility.yul\":5359:5506   */\n      tag_116\n      jump\t// in\n    tag_182:\n        /* \"#utility.yul\":5352:5506   */\n      swap2\n      pop\n        /* \"#utility.yul\":5523:5526   */\n      dup2\n        /* \"#utility.yul\":5516:5526   */\n      swap1\n      pop\n        /* \"#utility.yul\":5153:5532   */\n      swap2\n      swap1\n      pop\n      jump\t// out\n        /* \"#utility.yul\":5538:5703   */\n    tag_117:\n        /* \"#utility.yul\":5678:5695   */\n      0x5769746864726177206661696c65640000000000000000000000000000000000\n        /* \"#utility.yul\":5674:5675   */\n      0x00\n        /* \"#utility.yul\":5666:5672   */\n      dup3\n        /* \"#utility.yul\":5662:5676   */\n      add\n        /* \"#utility.yul\":5655:5696   */\n      mstore\n        /* \"#utility.yul\":5538:5703   */\n      pop\n      jump\t// out\n        /* \"#utility.yul\":5709:6075   */\n    tag_118:\n        /* \"#utility.yul\":5851:5854   */\n      0x00\n        /* \"#utility.yul\":5872:5939   */\n      tag_185\n        /* \"#utility.yul\":5936:5938   */\n      0x0f\n        /* \"#utility.yul\":5931:5934   */\n      dup4\n        /* \"#utility.yul\":5872:5939   */\n      tag_110\n      jump\t// in\n    tag_185:\n        /* \"#utility.yul\":5865:5939   */\n      swap2\n      pop\n        /* \"#utility.yul\":5948:6041   */\n      tag_186\n        /* \"#utility.yul\":6037:6040   */\n      dup3\n        /* \"#utility.yul\":5948:6041   */\n      tag_117\n      jump\t// in\n    tag_186:\n        /* \"#utility.yul\":6066:6068   */\n      0x20\n        /* \"#utility.yul\":6061:6064   */\n      dup3\n        /* \"#utility.yul\":6057:6069   */\n      add\n        /* \"#utility.yul\":6050:6069   */\n      swap1\n      pop\n        /* \"#utility.yul\":5709:6075   */\n      swap2\n      swap1\n      pop\n      jump\t// out\n        /* \"#utility.yul\":6081:6500   */\n    tag_74:\n        /* \"#utility.yul\":6247:6251   */\n      0x00\n        /* \"#utility.yul\":6285:6287   */\n      0x20\n        /* \"#utility.yul\":6274:6283   */\n      dup3\n        /* \"#utility.yul\":6270:6288   */\n      add\n        /* \"#utility.yul\":6262:6288   */\n      swap1\n      pop\n        /* \"#utility.yul\":6334:6343   */\n      dup2\n        /* \"#utility.yul\":6328:6332   */\n      dup2\n        /* \"#utility.yul\":6324:6344   */\n      sub\n        /* \"#utility.yul\":6320:6321   */\n      0x00\n        /* \"#utility.yul\":6309:6318   */\n      dup4\n        /* \"#utility.yul\":6305:6322   */\n      add\n        /* \"#utility.yul\":6298:6345   */\n      mstore\n        /* \"#utility.yul\":6362:6493   */\n      tag_188\n        /* \"#utility.yul\":6488:6492   */\n      dup2\n        /* \"#utility.yul\":6362:6493   */\n      tag_118\n      jump\t// in\n    tag_188:\n        /* \"#utility.yul\":6354:6493   */\n      swap1\n      pop\n        /* \"#utility.yul\":6081:6500   */\n      swap2\n      swap1\n      pop\n      jump\t// out\n        /* \"#utility.yul\":6506:6916   */\n    tag_81:\n        /* \"#utility.yul\":6546:6553   */\n      0x00\n        /* \"#utility.yul\":6569:6589   */\n      tag_190\n        /* \"#utility.yul\":6587:6588   */\n      dup3\n        /* \"#utility.yul\":6569:6589   */\n      tag_98\n      jump\t// in\n    tag_190:\n        /* \"#utility.yul\":6564:6589   */\n      swap2\n      pop\n        /* \"#utility.yul\":6603:6623   */\n      tag_191\n        /* \"#utility.yul\":6621:6622   */\n      dup4\n        /* \"#utility.yul\":6603:6623   */\n      tag_98\n      jump\t// in\n    tag_191:\n        /* \"#utility.yul\":6598:6623   */\n      swap3\n      pop\n        /* \"#utility.yul\":6658:6659   */\n      dup3\n        /* \"#utility.yul\":6655:6656   */\n      dup3\n        /* \"#utility.yul\":6651:6660   */\n      mul\n        /* \"#utility.yul\":6680:6710   */\n      tag_192\n        /* \"#utility.yul\":6698:6709   */\n      dup2\n        /* \"#utility.yul\":6680:6710   */\n      tag_98\n      jump\t// in\n    tag_192:\n        /* \"#utility.yul\":6669:6710   */\n      swap2\n      pop\n        /* \"#utility.yul\":6859:6860   */\n      dup3\n        /* \"#utility.yul\":6850:6857   */\n      dup3\n        /* \"#utility.yul\":6846:6861   */\n      div\n        /* \"#utility.yul\":6843:6844   */\n      dup5\n        /* \"#utility.yul\":6840:6862   */\n      eq\n        /* \"#utility.yul\":6820:6821   */\n      dup4\n        /* \"#utility.yul\":6813:6822   */\n      iszero\n        /* \"#utility.yul\":6793:6876   */\n      or\n        /* \"#utility.yul\":6770:6909   */\n      tag_193\n      jumpi\n        /* \"#utility.yul\":6889:6907   */\n      tag_194\n      tag_113\n      jump\t// in\n    tag_194:\n        /* \"#utility.yul\":6770:6909   */\n    tag_193:\n        /* \"#utility.yul\":6554:6916   */\n      pop\n        /* \"#utility.yul\":6506:6916   */\n      swap3\n      swap2\n      pop\n      pop\n      jump\t// out\n        /* \"#utility.yul\":6922:7102   */\n    tag_119:\n        /* \"#utility.yul\":6970:7047   */\n      0x4e487b7100000000000000000000000000000000000000000000000000000000\n        /* \"#utility.yul\":6967:6968   */\n      0x00\n        /* \"#utility.yul\":6960:7048   */\n      mstore\n        /* \"#utility.yul\":7067:7071   */\n      0x12\n        /* \"#utility.yul\":7064:7065   */\n      0x04\n        /* \"#utility.yul\":7057:7072   */\n      mstore\n        /* \"#utility.yul\":7091:7095   */\n      0x24\n        /* \"#utility.yul\":7088:7089   */\n      0x00\n        /* \"#utility.yul\":7081:7096   */\n      revert\n        /* \"#utility.yul\":7108:7293   */\n    tag_83:\n        /* \"#utility.yul\":7148:7149   */\n      0x00\n        /* \"#utility.yul\":7165:7185   */\n      tag_197\n        /* \"#utility.yul\":7183:7184   */\n      dup3\n        /* \"#utility.yul\":7165:7185   */\n      tag_98\n      jump\t// in\n    tag_197:\n        /* \"#utility.yul\":7160:7185   */\n      swap2\n      pop\n        /* \"#utility.yul\":7199:7219   */\n      tag_198\n        /* \"#utility.yul\":7217:7218   */\n      dup4\n        /* \"#utility.yul\":7199:7219   */\n      tag_98\n      jump\t// in\n    tag_198:\n        /* \"#utility.yul\":7194:7219   */\n      swap3\n      pop\n        /* \"#utility.yul\":7238:7239   */\n      dup3\n        /* \"#utility.yul\":7228:7263   */\n      tag_199\n      jumpi\n        /* \"#utility.yul\":7243:7261   */\n      tag_200\n      tag_119\n      jump\t// in\n    tag_200:\n        /* \"#utility.yul\":7228:7263   */\n    tag_199:\n        /* \"#utility.yul\":7285:7286   */\n      dup3\n        /* \"#utility.yul\":7282:7283   */\n      dup3\n        /* \"#utility.yul\":7278:7287   */\n      div\n        /* \"#utility.yul\":7273:7287   */\n      swap1\n      pop\n        /* \"#utility.yul\":7108:7293   */\n      swap3\n      swap2\n      pop\n      pop\n      jump\t// out\n        /* \"#utility.yul\":7299:7404   */\n    tag_120:\n        /* \"#utility.yul\":7335:7342   */\n      0x00\n        /* \"#utility.yul\":7375:7397   */\n      0xffffffffffffffffffff\n        /* \"#utility.yul\":7368:7373   */\n      dup3\n        /* \"#utility.yul\":7364:7398   */\n      and\n        /* \"#utility.yul\":7353:7398   */\n      swap1\n      pop\n        /* \"#utility.yul\":7299:7404   */\n      swap2\n      swap1\n      pop\n      jump\t// out\n        /* \"#utility.yul\":7410:7530   */\n    tag_121:\n        /* \"#utility.yul\":7482:7505   */\n      tag_203\n        /* \"#utility.yul\":7499:7504   */\n      dup2\n        /* \"#utility.yul\":7482:7505   */\n      tag_120\n      jump\t// in\n    tag_203:\n        /* \"#utility.yul\":7475:7480   */\n      dup2\n        /* \"#utility.yul\":7472:7506   */\n      eq\n        /* \"#utility.yul\":7462:7524   */\n      tag_204\n      jumpi\n        /* \"#utility.yul\":7520:7521   */\n      0x00\n        /* \"#utility.yul\":7517:7518   */\n      dup1\n        /* \"#utility.yul\":7510:7522   */\n      revert\n        /* \"#utility.yul\":7462:7524   */\n    tag_204:\n        /* \"#utility.yul\":7410:7530   */\n      pop\n      jump\t// out\n        /* \"#utility.yul\":7536:7677   */\n    tag_122:\n        /* \"#utility.yul\":7592:7597   */\n      0x00\n        /* \"#utility.yul\":7623:7629   */\n      dup2\n        /* \"#utility.yul\":7617:7630   */\n      mload\n        /* \"#utility.yul\":7608:7630   */\n      swap1\n      pop\n        /* \"#utility.yul\":7639:7671   */\n      tag_206\n        /* \"#utility.yul\":7665:7670   */\n      dup2\n        /* \"#utility.yul\":7639:7671   */\n      tag_121\n      jump\t// in\n    tag_206:\n        /* \"#utility.yul\":7536:7677   */\n      swap3\n      swap2\n      pop\n      pop\n      jump\t// out\n        /* \"#utility.yul\":7683:7759   */\n    tag_123:\n        /* \"#utility.yul\":7719:7726   */\n      0x00\n        /* \"#utility.yul\":7748:7753   */\n      dup2\n        /* \"#utility.yul\":7737:7753   */\n      swap1\n      pop\n        /* \"#utility.yul\":7683:7759   */\n      swap2\n      swap1\n      pop\n      jump\t// out\n        /* \"#utility.yul\":7765:7885   */\n    tag_124:\n        /* \"#utility.yul\":7837:7860   */\n      tag_209\n        /* \"#utility.yul\":7854:7859   */\n      dup2\n        /* \"#utility.yul\":7837:7860   */\n      tag_123\n      jump\t// in\n    tag_209:\n        /* \"#utility.yul\":7830:7835   */\n      dup2\n        /* \"#utility.yul\":7827:7861   */\n      eq\n        /* \"#utility.yul\":7817:7879   */\n      tag_210\n      jumpi\n        /* \"#utility.yul\":7875:7876   */\n      0x00\n        /* \"#utility.yul\":7872:7873   */\n      dup1\n        /* \"#utility.yul\":7865:7877   */\n      revert\n        /* \"#utility.yul\":7817:7879   */\n    tag_210:\n        /* \"#utility.yul\":7765:7885   */\n      pop\n      jump\t// out\n        /* \"#utility.yul\":7891:8032   */\n    tag_125:\n        /* \"#utility.yul\":7947:7952   */\n      0x00\n        /* \"#utility.yul\":7978:7984   */\n      dup2\n        /* \"#utility.yul\":7972:7985   */\n      mload\n        /* \"#utility.yul\":7963:7985   */\n      swap1\n      pop\n        /* \"#utility.yul\":7994:8026   */\n      tag_212\n        /* \"#utility.yul\":8020:8025   */\n      dup2\n        /* \"#utility.yul\":7994:8026   */\n      tag_124\n      jump\t// in\n    tag_212:\n        /* \"#utility.yul\":7891:8032   */\n      swap3\n      swap2\n      pop\n      pop\n      jump\t// out\n        /* \"#utility.yul\":8038:8181   */\n    tag_126:\n        /* \"#utility.yul\":8095:8100   */\n      0x00\n        /* \"#utility.yul\":8126:8132   */\n      dup2\n        /* \"#utility.yul\":8120:8133   */\n      mload\n        /* \"#utility.yul\":8111:8133   */\n      swap1\n      pop\n        /* \"#utility.yul\":8142:8175   */\n      tag_214\n        /* \"#utility.yul\":8169:8174   */\n      dup2\n        /* \"#utility.yul\":8142:8175   */\n      tag_108\n      jump\t// in\n    tag_214:\n        /* \"#utility.yul\":8038:8181   */\n      swap3\n      swap2\n      pop\n      pop\n      jump\t// out\n        /* \"#utility.yul\":8187:9158   */\n    tag_88:\n        /* \"#utility.yul\":8290:8296   */\n      0x00\n        /* \"#utility.yul\":8298:8304   */\n      dup1\n        /* \"#utility.yul\":8306:8312   */\n      0x00\n        /* \"#utility.yul\":8314:8320   */\n      dup1\n        /* \"#utility.yul\":8322:8328   */\n      0x00\n        /* \"#utility.yul\":8371:8374   */\n      0xa0\n        /* \"#utility.yul\":8359:8368   */\n      dup7\n        /* \"#utility.yul\":8350:8357   */\n      dup9\n        /* \"#utility.yul\":8346:8369   */\n      sub\n        /* \"#utility.yul\":8342:8375   */\n      slt\n        /* \"#utility.yul\":8339:8459   */\n      iszero\n      tag_216\n      jumpi\n        /* \"#utility.yul\":8378:8457   */\n      tag_217\n      tag_101\n      jump\t// in\n    tag_217:\n        /* \"#utility.yul\":8339:8459   */\n    tag_216:\n        /* \"#utility.yul\":8498:8499   */\n      0x00\n        /* \"#utility.yul\":8523:8586   */\n      tag_218\n        /* \"#utility.yul\":8578:8585   */\n      dup9\n        /* \"#utility.yul\":8569:8575   */\n      dup3\n        /* \"#utility.yul\":8558:8567   */\n      dup10\n        /* \"#utility.yul\":8554:8576   */\n      add\n        /* \"#utility.yul\":8523:8586   */\n      tag_122\n      jump\t// in\n    tag_218:\n        /* \"#utility.yul\":8513:8586   */\n      swap6\n      pop\n        /* \"#utility.yul\":8469:8596   */\n      pop\n        /* \"#utility.yul\":8635:8637   */\n      0x20\n        /* \"#utility.yul\":8661:8724   */\n      tag_219\n        /* \"#utility.yul\":8716:8723   */\n      dup9\n        /* \"#utility.yul\":8707:8713   */\n      dup3\n        /* \"#utility.yul\":8696:8705   */\n      dup10\n        /* \"#utility.yul\":8692:8714   */\n      add\n        /* \"#utility.yul\":8661:8724   */\n      tag_125\n      jump\t// in\n    tag_219:\n        /* \"#utility.yul\":8651:8724   */\n      swap5\n      pop\n        /* \"#utility.yul\":8606:8734   */\n      pop\n        /* \"#utility.yul\":8773:8775   */\n      0x40\n        /* \"#utility.yul\":8799:8863   */\n      tag_220\n        /* \"#utility.yul\":8855:8862   */\n      dup9\n        /* \"#utility.yul\":8846:8852   */\n      dup3\n        /* \"#utility.yul\":8835:8844   */\n      dup10\n        /* \"#utility.yul\":8831:8853   */\n      add\n        /* \"#utility.yul\":8799:8863   */\n      tag_126\n      jump\t// in\n    tag_220:\n        /* \"#utility.yul\":8789:8863   */\n      swap4\n      pop\n        /* \"#utility.yul\":8744:8873   */\n      pop\n        /* \"#utility.yul\":8912:8914   */\n      0x60\n        /* \"#utility.yul\":8938:9002   */\n      tag_221\n        /* \"#utility.yul\":8994:9001   */\n      dup9\n        /* \"#utility.yul\":8985:8991   */\n      dup3\n        /* \"#utility.yul\":8974:8983   */\n      dup10\n        /* \"#utility.yul\":8970:8992   */\n      add\n        /* \"#utility.yul\":8938:9002   */\n      tag_126\n      jump\t// in\n    tag_221:\n        /* \"#utility.yul\":8928:9002   */\n      swap3\n      pop\n        /* \"#utility.yul\":8883:9012   */\n      pop\n        /* \"#utility.yul\":9051:9054   */\n      0x80\n        /* \"#utility.yul\":9078:9141   */\n      tag_222\n        /* \"#utility.yul\":9133:9140   */\n      dup9\n        /* \"#utility.yul\":9124:9130   */\n      dup3\n        /* \"#utility.yul\":9113:9122   */\n      dup10\n        /* \"#utility.yul\":9109:9131   */\n      add\n        /* \"#utility.yul\":9078:9141   */\n      tag_122\n      jump\t// in\n    tag_222:\n        /* \"#utility.yul\":9068:9141   */\n      swap2\n      pop\n        /* \"#utility.yul\":9022:9151   */\n      pop\n        /* \"#utility.yul\":8187:9158   */\n      swap3\n      swap6\n      pop\n      swap3\n      swap6\n      swap1\n      swap4\n      pop\n      jump\t// out\n        /* \"#utility.yul\":9164:9720   */\n    tag_90:\n        /* \"#utility.yul\":9203:9210   */\n      0x00\n        /* \"#utility.yul\":9226:9245   */\n      tag_224\n        /* \"#utility.yul\":9243:9244   */\n      dup3\n        /* \"#utility.yul\":9226:9245   */\n      tag_123\n      jump\t// in\n    tag_224:\n        /* \"#utility.yul\":9221:9245   */\n      swap2\n      pop\n        /* \"#utility.yul\":9259:9278   */\n      tag_225\n        /* \"#utility.yul\":9276:9277   */\n      dup4\n        /* \"#utility.yul\":9259:9278   */\n      tag_123\n      jump\t// in\n    tag_225:\n        /* \"#utility.yul\":9254:9278   */\n      swap3\n      pop\n        /* \"#utility.yul\":9313:9314   */\n      dup3\n        /* \"#utility.yul\":9310:9311   */\n      dup3\n        /* \"#utility.yul\":9306:9315   */\n      mul\n        /* \"#utility.yul\":9335:9364   */\n      tag_226\n        /* \"#utility.yul\":9352:9363   */\n      dup2\n        /* \"#utility.yul\":9335:9364   */\n      tag_123\n      jump\t// in\n    tag_226:\n        /* \"#utility.yul\":9324:9364   */\n      swap2\n      pop\n        /* \"#utility.yul\":9422:9488   */\n      0x8000000000000000000000000000000000000000000000000000000000000000\n        /* \"#utility.yul\":9419:9420   */\n      dup5\n        /* \"#utility.yul\":9416:9489   */\n      eq\n        /* \"#utility.yul\":9412:9413   */\n      0x00\n        /* \"#utility.yul\":9409:9410   */\n      dup5\n        /* \"#utility.yul\":9405:9414   */\n      slt\n        /* \"#utility.yul\":9401:9490   */\n      and\n        /* \"#utility.yul\":9398:9513   */\n      iszero\n      tag_227\n      jumpi\n        /* \"#utility.yul\":9493:9511   */\n      tag_228\n      tag_113\n      jump\t// in\n    tag_228:\n        /* \"#utility.yul\":9398:9513   */\n    tag_227:\n        /* \"#utility.yul\":9663:9664   */\n      dup3\n        /* \"#utility.yul\":9654:9661   */\n      dup3\n        /* \"#utility.yul\":9649:9665   */\n      sdiv\n        /* \"#utility.yul\":9646:9647   */\n      dup5\n        /* \"#utility.yul\":9643:9666   */\n      eq\n        /* \"#utility.yul\":9623:9624   */\n      dup4\n        /* \"#utility.yul\":9616:9625   */\n      iszero\n        /* \"#utility.yul\":9596:9680   */\n      or\n        /* \"#utility.yul\":9573:9713   */\n      tag_229\n      jumpi\n        /* \"#utility.yul\":9693:9711   */\n      tag_230\n      tag_113\n      jump\t// in\n    tag_230:\n        /* \"#utility.yul\":9573:9713   */\n    tag_229:\n        /* \"#utility.yul\":9211:9720   */\n      pop\n        /* \"#utility.yul\":9164:9720   */\n      swap3\n      swap2\n      pop\n      pop\n      jump\t// out\n\n    auxdata: 0xa2646970667358221220eed351f6e96868893dcf24f489eaea056b0233dfd69a307fb7549ae82e260e1e64736f6c634300081a0033\n}\n",
				"bytecode": {
					"linkReferences": {},
					"object": "60a0604052348015600e575f80fd5b503373ffffffffffffffffffffffffffffffffffffffff1660808173ffffffffffffffffffffffffffffffffffffffff1681525050608051610be66100625f395f818161027201526104b20152610be65ff3fe608060405260043610610058575f3560e01c80632100f479146100715780633ccfd60b1461009b5780633e47d6f3146100b1578063b60d4288146100ed578063dba6335f146100f7578063dc0d3dff1461012157610067565b366100675761006561015d565b005b61006f61015d565b005b34801561007c575f80fd5b50610085610264565b60405161009291906106a5565b60405180910390f35b3480156100a6575f80fd5b506100af610270565b005b3480156100bc575f80fd5b506100d760048036038101906100d2919061071c565b61049b565b6040516100e491906106a5565b60405180910390f35b6100f561015d565b005b348015610102575f80fd5b5061010b6104b0565b6040516101189190610756565b60405180910390f35b34801561012c575f80fd5b5061014760048036038101906101429190610799565b6104d4565b6040516101549190610756565b60405180910390f35b674563918244f4000061016f3461050e565b10156101b0576040517f08c379a00000000000000000000000000000000000000000000000000000000081526004016101a79061081e565b60405180910390fd5b5f33908060018154018082558091505060019003905f5260205f20015f9091909190916101000a81548173ffffffffffffffffffffffffffffffffffffffff021916908373ffffffffffffffffffffffffffffffffffffffff1602179055503460015f3373ffffffffffffffffffffffffffffffffffffffff1673ffffffffffffffffffffffffffffffffffffffff1681526020019081526020015f205f82825461025b9190610869565b92505081905550565b674563918244f4000081565b7f000000000000000000000000000000000000000000000000000000000000000073ffffffffffffffffffffffffffffffffffffffff163373ffffffffffffffffffffffffffffffffffffffff16146102f5576040517f30cd747100000000000000000000000000000000000000000000000000000000815260040160405180910390fd5b5f5b5f80549050811015610391575f8082815481106103175761031661089c565b5b905f5260205f20015f9054906101000a900473ffffffffffffffffffffffffffffffffffffffff1690505f60015f8373ffffffffffffffffffffffffffffffffffffffff1673ffffffffffffffffffffffffffffffffffffffff1681526020019081526020015f20819055505080806001019150506102f7565b505f67ffffffffffffffff8111156103ac576103ab6108c9565b5b6040519080825280602002602001820160405280156103da5781602001602082028036833780820191505090505b505f90805190602001906103ef9291906105eb565b505f3373ffffffffffffffffffffffffffffffffffffffff164760405161041590610923565b5f6040518083038185875af1925050503d805f811461044f576040519150601f19603f3d011682016040523d82523d5f602084013e610454565b606091505b5050905080610498576040517f08c379a000000000000000000000000000000000000000000000000000000000815260040161048f90610981565b60405180910390fd5b50565b6001602052805f5260405f205f915090505481565b7f000000000000000000000000000000000000000000000000000000000000000081565b5f81815481106104e2575f80fd5b905f5260205f20015f915054906101000a900473ffffffffffffffffffffffffffffffffffffffff1681565b5f80610518610546565b90505f670de0b6b3a76400008483610530919061099f565b61053a9190610a0d565b90508092505050919050565b5f8073694aa1769357215de4fac081bf1f309adc32530690505f8173ffffffffffffffffffffffffffffffffffffffff1663feaf968c6040518163ffffffff1660e01b815260040160a060405180830381865afa1580156105a9573d5f803e3d5ffd5b505050506040513d601f19601f820116820180604052508101906105cd9190610ac3565b5050509150506402540be400816105e49190610b3a565b9250505090565b828054828255905f5260205f20908101928215610661579160200282015b82811115610660578251825f6101000a81548173ffffffffffffffffffffffffffffffffffffffff021916908373ffffffffffffffffffffffffffffffffffffffff16021790555091602001919060010190610609565b5b50905061066e9190610672565b5090565b5b80821115610689575f815f905550600101610673565b5090565b5f819050919050565b61069f8161068d565b82525050565b5f6020820190506106b85f830184610696565b92915050565b5f80fd5b5f73ffffffffffffffffffffffffffffffffffffffff82169050919050565b5f6106eb826106c2565b9050919050565b6106fb816106e1565b8114610705575f80fd5b50565b5f81359050610716816106f2565b92915050565b5f60208284031215610731576107306106be565b5b5f61073e84828501610708565b91505092915050565b610750816106e1565b82525050565b5f6020820190506107695f830184610747565b92915050565b6107788161068d565b8114610782575f80fd5b50565b5f813590506107938161076f565b92915050565b5f602082840312156107ae576107ad6106be565b5b5f6107bb84828501610785565b91505092915050565b5f82825260208201905092915050565b7f4469646e27742073656e6420656e6f75676820455448000000000000000000005f82015250565b5f6108086016836107c4565b9150610813826107d4565b602082019050919050565b5f6020820190508181035f830152610835816107fc565b9050919050565b7f4e487b71000000000000000000000000000000000000000000000000000000005f52601160045260245ffd5b5f6108738261068d565b915061087e8361068d565b92508282019050808211156108965761089561083c565b5b92915050565b7f4e487b71000000000000000000000000000000000000000000000000000000005f52603260045260245ffd5b7f4e487b71000000000000000000000000000000000000000000000000000000005f52604160045260245ffd5b5f81905092915050565b50565b5f61090e5f836108f6565b915061091982610900565b5f82019050919050565b5f61092d82610903565b9150819050919050565b7f5769746864726177206661696c656400000000000000000000000000000000005f82015250565b5f61096b600f836107c4565b915061097682610937565b602082019050919050565b5f6020820190508181035f8301526109988161095f565b9050919050565b5f6109a98261068d565b91506109b48361068d565b92508282026109c28161068d565b915082820484148315176109d9576109d861083c565b5b5092915050565b7f4e487b71000000000000000000000000000000000000000000000000000000005f52601260045260245ffd5b5f610a178261068d565b9150610a228361068d565b925082610a3257610a316109e0565b5b828204905092915050565b5f69ffffffffffffffffffff82169050919050565b610a5b81610a3d565b8114610a65575f80fd5b50565b5f81519050610a7681610a52565b92915050565b5f819050919050565b610a8e81610a7c565b8114610a98575f80fd5b50565b5f81519050610aa981610a85565b92915050565b5f81519050610abd8161076f565b92915050565b5f805f805f60a08688031215610adc57610adb6106be565b5b5f610ae988828901610a68565b9550506020610afa88828901610a9b565b9450506040610b0b88828901610aaf565b9350506060610b1c88828901610aaf565b9250506080610b2d88828901610a68565b9150509295509295909350565b5f610b4482610a7c565b9150610b4f83610a7c565b9250828202610b5d81610a7c565b91507f800000000000000000000000000000000000000000000000000000000000000084145f84121615610b9457610b9361083c565b5b8282058414831517610ba957610ba861083c565b5b509291505056fea2646970667358221220eed351f6e96868893dcf24f489eaea056b0233dfd69a307fb7549ae82e260e1e64736f6c634300081a0033",
					"opcodes": "PUSH1 0xA0 PUSH1 0x40 MSTORE CALLVALUE DUP1 ISZERO PUSH1 0xE JUMPI PUSH0 DUP1 REVERT JUMPDEST POP CALLER PUSH20 0xFFFFFFFFFFFFFFFFFFFFFFFFFFFFFFFFFFFFFFFF AND PUSH1 0x80 DUP2 PUSH20 0xFFFFFFFFFFFFFFFFFFFFFFFFFFFFFFFFFFFFFFFF AND DUP2 MSTORE POP POP PUSH1 0x80 MLOAD PUSH2 0xBE6 PUSH2 0x62 PUSH0 CODECOPY PUSH0 DUP2 DUP2 PUSH2 0x272 ADD MSTORE PUSH2 0x4B2 ADD MSTORE PUSH2 0xBE6 PUSH0 RETURN INVALID PUSH1 0x80 PUSH1 0x40 MSTORE PUSH1 0x4 CALLDATASIZE LT PUSH2 0x58 JUMPI PUSH0 CALLDATALOAD PUSH1 0xE0 SHR DUP1 PUSH4 0x2100F479 EQ PUSH2 0x71 JUMPI DUP1 PUSH4 0x3CCFD60B EQ PUSH2 0x9B JUMPI DUP1 PUSH4 0x3E47D6F3 EQ PUSH2 0xB1 JUMPI DUP1 PUSH4 0xB60D4288 EQ PUSH2 0xED JUMPI DUP1 PUSH4 0xDBA6335F EQ PUSH2 0xF7 JUMPI DUP1 PUSH4 0xDC0D3DFF EQ PUSH2 0x121 JUMPI PUSH2 0x67 JUMP JUMPDEST CALLDATASIZE PUSH2 0x67 JUMPI PUSH2 0x65 PUSH2 0x15D JUMP JUMPDEST STOP JUMPDEST PUSH2 0x6F PUSH2 0x15D JUMP JUMPDEST STOP JUMPDEST CALLVALUE DUP1 ISZERO PUSH2 0x7C JUMPI PUSH0 DUP1 REVERT JUMPDEST POP PUSH2 0x85 PUSH2 0x264 JUMP JUMPDEST PUSH1 0x40 MLOAD PUSH2 0x92 SWAP2 SWAP1 PUSH2 0x6A5 JUMP JUMPDEST PUSH1 0x40 MLOAD DUP1 SWAP2 SUB SWAP1 RETURN JUMPDEST CALLVALUE DUP1 ISZERO PUSH2 0xA6 JUMPI PUSH0 DUP1 REVERT JUMPDEST POP PUSH2 0xAF PUSH2 0x270 JUMP JUMPDEST STOP JUMPDEST CALLVALUE DUP1 ISZERO PUSH2 0xBC JUMPI PUSH0 DUP1 REVERT JUMPDEST POP PUSH2 0xD7 PUSH1 0x4 DUP1 CALLDATASIZE SUB DUP2 ADD SWAP1 PUSH2 0xD2 SWAP2 SWAP1 PUSH2 0x71C JUMP JUMPDEST PUSH2 0x49B JUMP JUMPDEST PUSH1 0x40 MLOAD PUSH2 0xE4 SWAP2 SWAP1 PUSH2 0x6A5 JUMP JUMPDEST PUSH1 0x40 MLOAD DUP1 SWAP2 SUB SWAP1 RETURN JUMPDEST PUSH2 0xF5 PUSH2 0x15D JUMP JUMPDEST STOP JUMPDEST CALLVALUE DUP1 ISZERO PUSH2 0x102 JUMPI PUSH0 DUP1 REVERT JUMPDEST POP PUSH2 0x10B PUSH2 0x4B0 JUMP JUMPDEST PUSH1 0x40 MLOAD PUSH2 0x118 SWAP2 SWAP1 PUSH2 0x756 JUMP JUMPDEST PUSH1 0x40 MLOAD DUP1 SWAP2 SUB SWAP1 RETURN JUMPDEST CALLVALUE DUP1 ISZERO PUSH2 0x12C JUMPI PUSH0 DUP1 REVERT JUMPDEST POP PUSH2 0x147 PUSH1 0x4 DUP1 CALLDATASIZE SUB DUP2 ADD SWAP1 PUSH2 0x142 SWAP2 SWAP1 PUSH2 0x799 JUMP JUMPDEST PUSH2 0x4D4 JUMP JUMPDEST PUSH1 0x40 MLOAD PUSH2 0x154 SWAP2 SWAP1 PUSH2 0x756 JUMP JUMPDEST PUSH1 0x40 MLOAD DUP1 SWAP2 SUB SWAP1 RETURN JUMPDEST PUSH8 0x4563918244F40000 PUSH2 0x16F CALLVALUE PUSH2 0x50E JUMP JUMPDEST LT ISZERO PUSH2 0x1B0 JUMPI PUSH1 0x40 MLOAD PUSH32 0x8C379A000000000000000000000000000000000000000000000000000000000 DUP2 MSTORE PUSH1 0x4 ADD PUSH2 0x1A7 SWAP1 PUSH2 0x81E JUMP JUMPDEST PUSH1 0x40 MLOAD DUP1 SWAP2 SUB SWAP1 REVERT JUMPDEST PUSH0 CALLER SWAP1 DUP1 PUSH1 0x1 DUP2 SLOAD ADD DUP1 DUP3 SSTORE DUP1 SWAP2 POP POP PUSH1 0x1 SWAP1 SUB SWAP1 PUSH0 MSTORE PUSH1 0x20 PUSH0 KECCAK256 ADD PUSH0 SWAP1 SWAP2 SWAP1 SWAP2 SWAP1 SWAP2 PUSH2 0x100 EXP DUP2 SLOAD DUP2 PUSH20 0xFFFFFFFFFFFFFFFFFFFFFFFFFFFFFFFFFFFFFFFF MUL NOT AND SWAP1 DUP4 PUSH20 0xFFFFFFFFFFFFFFFFFFFFFFFFFFFFFFFFFFFFFFFF AND MUL OR SWAP1 SSTORE POP CALLVALUE PUSH1 0x1 PUSH0 CALLER PUSH20 0xFFFFFFFFFFFFFFFFFFFFFFFFFFFFFFFFFFFFFFFF AND PUSH20 0xFFFFFFFFFFFFFFFFFFFFFFFFFFFFFFFFFFFFFFFF AND DUP2 MSTORE PUSH1 0x20 ADD SWAP1 DUP2 MSTORE PUSH1 0x20 ADD PUSH0 KECCAK256 PUSH0 DUP3 DUP3 SLOAD PUSH2 0x25B SWAP2 SWAP1 PUSH2 0x869 JUMP JUMPDEST SWAP3 POP POP DUP2 SWAP1 SSTORE POP JUMP JUMPDEST PUSH8 0x4563918244F40000 DUP2 JUMP JUMPDEST PUSH32 0x0 PUSH20 0xFFFFFFFFFFFFFFFFFFFFFFFFFFFFFFFFFFFFFFFF AND CALLER PUSH20 0xFFFFFFFFFFFFFFFFFFFFFFFFFFFFFFFFFFFFFFFF AND EQ PUSH2 0x2F5 JUMPI PUSH1 0x40 MLOAD PUSH32 0x30CD747100000000000000000000000000000000000000000000000000000000 DUP2 MSTORE PUSH1 0x4 ADD PUSH1 0x40 MLOAD DUP1 SWAP2 SUB SWAP1 REVERT JUMPDEST PUSH0 JUMPDEST PUSH0 DUP1 SLOAD SWAP1 POP DUP2 LT ISZERO PUSH2 0x391 JUMPI PUSH0 DUP1 DUP3 DUP2 SLOAD DUP2 LT PUSH2 0x317 JUMPI PUSH2 0x316 PUSH2 0x89C JUMP JUMPDEST JUMPDEST SWAP1 PUSH0 MSTORE PUSH1 0x20 PUSH0 KECCAK256 ADD PUSH0 SWAP1 SLOAD SWAP1 PUSH2 0x100 EXP SWAP1 DIV PUSH20 0xFFFFFFFFFFFFFFFFFFFFFFFFFFFFFFFFFFFFFFFF AND SWAP1 POP PUSH0 PUSH1 0x1 PUSH0 DUP4 PUSH20 0xFFFFFFFFFFFFFFFFFFFFFFFFFFFFFFFFFFFFFFFF AND PUSH20 0xFFFFFFFFFFFFFFFFFFFFFFFFFFFFFFFFFFFFFFFF AND DUP2 MSTORE PUSH1 0x20 ADD SWAP1 DUP2 MSTORE PUSH1 0x20 ADD PUSH0 KECCAK256 DUP2 SWAP1 SSTORE POP POP DUP1 DUP1 PUSH1 0x1 ADD SWAP2 POP POP PUSH2 0x2F7 JUMP JUMPDEST POP PUSH0 PUSH8 0xFFFFFFFFFFFFFFFF DUP2 GT ISZERO PUSH2 0x3AC JUMPI PUSH2 0x3AB PUSH2 0x8C9 JUMP JUMPDEST JUMPDEST PUSH1 0x40 MLOAD SWAP1 DUP1 DUP3 MSTORE DUP1 PUSH1 0x20 MUL PUSH1 0x20 ADD DUP3 ADD PUSH1 0x40 MSTORE DUP1 ISZERO PUSH2 0x3DA JUMPI DUP2 PUSH1 0x20 ADD PUSH1 0x20 DUP3 MUL DUP1 CALLDATASIZE DUP4 CALLDATACOPY DUP1 DUP3 ADD SWAP2 POP POP SWAP1 POP JUMPDEST POP PUSH0 SWAP1 DUP1 MLOAD SWAP1 PUSH1 0x20 ADD SWAP1 PUSH2 0x3EF SWAP3 SWAP2 SWAP1 PUSH2 0x5EB JUMP JUMPDEST POP PUSH0 CALLER PUSH20 0xFFFFFFFFFFFFFFFFFFFFFFFFFFFFFFFFFFFFFFFF AND SELFBALANCE PUSH1 0x40 MLOAD PUSH2 0x415 SWAP1 PUSH2 0x923 JUMP JUMPDEST PUSH0 PUSH1 0x40 MLOAD DUP1 DUP4 SUB DUP2 DUP6 DUP8 GAS CALL SWAP3 POP POP POP RETURNDATASIZE DUP1 PUSH0 DUP2 EQ PUSH2 0x44F JUMPI PUSH1 0x40 MLOAD SWAP2 POP PUSH1 0x1F NOT PUSH1 0x3F RETURNDATASIZE ADD AND DUP3 ADD PUSH1 0x40 MSTORE RETURNDATASIZE DUP3 MSTORE RETURNDATASIZE PUSH0 PUSH1 0x20 DUP5 ADD RETURNDATACOPY PUSH2 0x454 JUMP JUMPDEST PUSH1 0x60 SWAP2 POP JUMPDEST POP POP SWAP1 POP DUP1 PUSH2 0x498 JUMPI PUSH1 0x40 MLOAD PUSH32 0x8C379A000000000000000000000000000000000000000000000000000000000 DUP2 MSTORE PUSH1 0x4 ADD PUSH2 0x48F SWAP1 PUSH2 0x981 JUMP JUMPDEST PUSH1 0x40 MLOAD DUP1 SWAP2 SUB SWAP1 REVERT JUMPDEST POP JUMP JUMPDEST PUSH1 0x1 PUSH1 0x20 MSTORE DUP1 PUSH0 MSTORE PUSH1 0x40 PUSH0 KECCAK256 PUSH0 SWAP2 POP SWAP1 POP SLOAD DUP2 JUMP JUMPDEST PUSH32 0x0 DUP2 JUMP JUMPDEST PUSH0 DUP2 DUP2 SLOAD DUP2 LT PUSH2 0x4E2 JUMPI PUSH0 DUP1 REVERT JUMPDEST SWAP1 PUSH0 MSTORE PUSH1 0x20 PUSH0 KECCAK256 ADD PUSH0 SWAP2 POP SLOAD SWAP1 PUSH2 0x100 EXP SWAP1 DIV PUSH20 0xFFFFFFFFFFFFFFFFFFFFFFFFFFFFFFFFFFFFFFFF AND DUP2 JUMP JUMPDEST PUSH0 DUP1 PUSH2 0x518 PUSH2 0x546 JUMP JUMPDEST SWAP1 POP PUSH0 PUSH8 0xDE0B6B3A7640000 DUP5 DUP4 PUSH2 0x530 SWAP2 SWAP1 PUSH2 0x99F JUMP JUMPDEST PUSH2 0x53A SWAP2 SWAP1 PUSH2 0xA0D JUMP JUMPDEST SWAP1 POP DUP1 SWAP3 POP POP POP SWAP2 SWAP1 POP JUMP JUMPDEST PUSH0 DUP1 PUSH20 0x694AA1769357215DE4FAC081BF1F309ADC325306 SWAP1 POP PUSH0 DUP2 PUSH20 0xFFFFFFFFFFFFFFFFFFFFFFFFFFFFFFFFFFFFFFFF AND PUSH4 0xFEAF968C PUSH1 0x40 MLOAD DUP2 PUSH4 0xFFFFFFFF AND PUSH1 0xE0 SHL DUP2 MSTORE PUSH1 0x4 ADD PUSH1 0xA0 PUSH1 0x40 MLOAD DUP1 DUP4 SUB DUP2 DUP7 GAS STATICCALL ISZERO DUP1 ISZERO PUSH2 0x5A9 JUMPI RETURNDATASIZE PUSH0 DUP1 RETURNDATACOPY RETURNDATASIZE PUSH0 REVERT JUMPDEST POP POP POP POP PUSH1 0x40 MLOAD RETURNDATASIZE PUSH1 0x1F NOT PUSH1 0x1F DUP3 ADD AND DUP3 ADD DUP1 PUSH1 0x40 MSTORE POP DUP2 ADD SWAP1 PUSH2 0x5CD SWAP2 SWAP1 PUSH2 0xAC3 JUMP JUMPDEST POP POP POP SWAP2 POP POP PUSH5 0x2540BE400 DUP2 PUSH2 0x5E4 SWAP2 SWAP1 PUSH2 0xB3A JUMP JUMPDEST SWAP3 POP POP POP SWAP1 JUMP JUMPDEST DUP3 DUP1 SLOAD DUP3 DUP3 SSTORE SWAP1 PUSH0 MSTORE PUSH1 0x20 PUSH0 KECCAK256 SWAP1 DUP2 ADD SWAP3 DUP3 ISZERO PUSH2 0x661 JUMPI SWAP2 PUSH1 0x20 MUL DUP3 ADD JUMPDEST DUP3 DUP2 GT ISZERO PUSH2 0x660 JUMPI DUP3 MLOAD DUP3 PUSH0 PUSH2 0x100 EXP DUP2 SLOAD DUP2 PUSH20 0xFFFFFFFFFFFFFFFFFFFFFFFFFFFFFFFFFFFFFFFF MUL NOT AND SWAP1 DUP4 PUSH20 0xFFFFFFFFFFFFFFFFFFFFFFFFFFFFFFFFFFFFFFFF AND MUL OR SWAP1 SSTORE POP SWAP2 PUSH1 0x20 ADD SWAP2 SWAP1 PUSH1 0x1 ADD SWAP1 PUSH2 0x609 JUMP JUMPDEST JUMPDEST POP SWAP1 POP PUSH2 0x66E SWAP2 SWAP1 PUSH2 0x672 JUMP JUMPDEST POP SWAP1 JUMP JUMPDEST JUMPDEST DUP1 DUP3 GT ISZERO PUSH2 0x689 JUMPI PUSH0 DUP2 PUSH0 SWAP1 SSTORE POP PUSH1 0x1 ADD PUSH2 0x673 JUMP JUMPDEST POP SWAP1 JUMP JUMPDEST PUSH0 DUP2 SWAP1 POP SWAP2 SWAP1 POP JUMP JUMPDEST PUSH2 0x69F DUP2 PUSH2 0x68D JUMP JUMPDEST DUP3 MSTORE POP POP JUMP JUMPDEST PUSH0 PUSH1 0x20 DUP3 ADD SWAP1 POP PUSH2 0x6B8 PUSH0 DUP4 ADD DUP5 PUSH2 0x696 JUMP JUMPDEST SWAP3 SWAP2 POP POP JUMP JUMPDEST PUSH0 DUP1 REVERT JUMPDEST PUSH0 PUSH20 0xFFFFFFFFFFFFFFFFFFFFFFFFFFFFFFFFFFFFFFFF DUP3 AND SWAP1 POP SWAP2 SWAP1 POP JUMP JUMPDEST PUSH0 PUSH2 0x6EB DUP3 PUSH2 0x6C2 JUMP JUMPDEST SWAP1 POP SWAP2 SWAP1 POP JUMP JUMPDEST PUSH2 0x6FB DUP2 PUSH2 0x6E1 JUMP JUMPDEST DUP2 EQ PUSH2 0x705 JUMPI PUSH0 DUP1 REVERT JUMPDEST POP JUMP JUMPDEST PUSH0 DUP2 CALLDATALOAD SWAP1 POP PUSH2 0x716 DUP2 PUSH2 0x6F2 JUMP JUMPDEST SWAP3 SWAP2 POP POP JUMP JUMPDEST PUSH0 PUSH1 0x20 DUP3 DUP5 SUB SLT ISZERO PUSH2 0x731 JUMPI PUSH2 0x730 PUSH2 0x6BE JUMP JUMPDEST JUMPDEST PUSH0 PUSH2 0x73E DUP5 DUP3 DUP6 ADD PUSH2 0x708 JUMP JUMPDEST SWAP2 POP POP SWAP3 SWAP2 POP POP JUMP JUMPDEST PUSH2 0x750 DUP2 PUSH2 0x6E1 JUMP JUMPDEST DUP3 MSTORE POP POP JUMP JUMPDEST PUSH0 PUSH1 0x20 DUP3 ADD SWAP1 POP PUSH2 0x769 PUSH0 DUP4 ADD DUP5 PUSH2 0x747 JUMP JUMPDEST SWAP3 SWAP2 POP POP JUMP JUMPDEST PUSH2 0x778 DUP2 PUSH2 0x68D JUMP JUMPDEST DUP2 EQ PUSH2 0x782 JUMPI PUSH0 DUP1 REVERT JUMPDEST POP JUMP JUMPDEST PUSH0 DUP2 CALLDATALOAD SWAP1 POP PUSH2 0x793 DUP2 PUSH2 0x76F JUMP JUMPDEST SWAP3 SWAP2 POP POP JUMP JUMPDEST PUSH0 PUSH1 0x20 DUP3 DUP5 SUB SLT ISZERO PUSH2 0x7AE JUMPI PUSH2 0x7AD PUSH2 0x6BE JUMP JUMPDEST JUMPDEST PUSH0 PUSH2 0x7BB DUP5 DUP3 DUP6 ADD PUSH2 0x785 JUMP JUMPDEST SWAP2 POP POP SWAP3 SWAP2 POP POP JUMP JUMPDEST PUSH0 DUP3 DUP3 MSTORE PUSH1 0x20 DUP3 ADD SWAP1 POP SWAP3 SWAP2 POP POP JUMP JUMPDEST PUSH32 0x4469646E27742073656E6420656E6F7567682045544800000000000000000000 PUSH0 DUP3 ADD MSTORE POP JUMP JUMPDEST PUSH0 PUSH2 0x808 PUSH1 0x16 DUP4 PUSH2 0x7C4 JUMP JUMPDEST SWAP2 POP PUSH2 0x813 DUP3 PUSH2 0x7D4 JUMP JUMPDEST PUSH1 0x20 DUP3 ADD SWAP1 POP SWAP2 SWAP1 POP JUMP JUMPDEST PUSH0 PUSH1 0x20 DUP3 ADD SWAP1 POP DUP2 DUP2 SUB PUSH0 DUP4 ADD MSTORE PUSH2 0x835 DUP2 PUSH2 0x7FC JUMP JUMPDEST SWAP1 POP SWAP2 SWAP1 POP JUMP JUMPDEST PUSH32 0x4E487B7100000000000000000000000000000000000000000000000000000000 PUSH0 MSTORE PUSH1 0x11 PUSH1 0x4 MSTORE PUSH1 0x24 PUSH0 REVERT JUMPDEST PUSH0 PUSH2 0x873 DUP3 PUSH2 0x68D JUMP JUMPDEST SWAP2 POP PUSH2 0x87E DUP4 PUSH2 0x68D JUMP JUMPDEST SWAP3 POP DUP3 DUP3 ADD SWAP1 POP DUP1 DUP3 GT ISZERO PUSH2 0x896 JUMPI PUSH2 0x895 PUSH2 0x83C JUMP JUMPDEST JUMPDEST SWAP3 SWAP2 POP POP JUMP JUMPDEST PUSH32 0x4E487B7100000000000000000000000000000000000000000000000000000000 PUSH0 MSTORE PUSH1 0x32 PUSH1 0x4 MSTORE PUSH1 0x24 PUSH0 REVERT JUMPDEST PUSH32 0x4E487B7100000000000000000000000000000000000000000000000000000000 PUSH0 MSTORE PUSH1 0x41 PUSH1 0x4 MSTORE PUSH1 0x24 PUSH0 REVERT JUMPDEST PUSH0 DUP2 SWAP1 POP SWAP3 SWAP2 POP POP JUMP JUMPDEST POP JUMP JUMPDEST PUSH0 PUSH2 0x90E PUSH0 DUP4 PUSH2 0x8F6 JUMP JUMPDEST SWAP2 POP PUSH2 0x919 DUP3 PUSH2 0x900 JUMP JUMPDEST PUSH0 DUP3 ADD SWAP1 POP SWAP2 SWAP1 POP JUMP JUMPDEST PUSH0 PUSH2 0x92D DUP3 PUSH2 0x903 JUMP JUMPDEST SWAP2 POP DUP2 SWAP1 POP SWAP2 SWAP1 POP JUMP JUMPDEST PUSH32 0x5769746864726177206661696C65640000000000000000000000000000000000 PUSH0 DUP3 ADD MSTORE POP JUMP JUMPDEST PUSH0 PUSH2 0x96B PUSH1 0xF DUP4 PUSH2 0x7C4 JUMP JUMPDEST SWAP2 POP PUSH2 0x976 DUP3 PUSH2 0x937 JUMP JUMPDEST PUSH1 0x20 DUP3 ADD SWAP1 POP SWAP2 SWAP1 POP JUMP JUMPDEST PUSH0 PUSH1 0x20 DUP3 ADD SWAP1 POP DUP2 DUP2 SUB PUSH0 DUP4 ADD MSTORE PUSH2 0x998 DUP2 PUSH2 0x95F JUMP JUMPDEST SWAP1 POP SWAP2 SWAP1 POP JUMP JUMPDEST PUSH0 PUSH2 0x9A9 DUP3 PUSH2 0x68D JUMP JUMPDEST SWAP2 POP PUSH2 0x9B4 DUP4 PUSH2 0x68D JUMP JUMPDEST SWAP3 POP DUP3 DUP3 MUL PUSH2 0x9C2 DUP2 PUSH2 0x68D JUMP JUMPDEST SWAP2 POP DUP3 DUP3 DIV DUP5 EQ DUP4 ISZERO OR PUSH2 0x9D9 JUMPI PUSH2 0x9D8 PUSH2 0x83C JUMP JUMPDEST JUMPDEST POP SWAP3 SWAP2 POP POP JUMP JUMPDEST PUSH32 0x4E487B7100000000000000000000000000000000000000000000000000000000 PUSH0 MSTORE PUSH1 0x12 PUSH1 0x4 MSTORE PUSH1 0x24 PUSH0 REVERT JUMPDEST PUSH0 PUSH2 0xA17 DUP3 PUSH2 0x68D JUMP JUMPDEST SWAP2 POP PUSH2 0xA22 DUP4 PUSH2 0x68D JUMP JUMPDEST SWAP3 POP DUP3 PUSH2 0xA32 JUMPI PUSH2 0xA31 PUSH2 0x9E0 JUMP JUMPDEST JUMPDEST DUP3 DUP3 DIV SWAP1 POP SWAP3 SWAP2 POP POP JUMP JUMPDEST PUSH0 PUSH10 0xFFFFFFFFFFFFFFFFFFFF DUP3 AND SWAP1 POP SWAP2 SWAP1 POP JUMP JUMPDEST PUSH2 0xA5B DUP2 PUSH2 0xA3D JUMP JUMPDEST DUP2 EQ PUSH2 0xA65 JUMPI PUSH0 DUP1 REVERT JUMPDEST POP JUMP JUMPDEST PUSH0 DUP2 MLOAD SWAP1 POP PUSH2 0xA76 DUP2 PUSH2 0xA52 JUMP JUMPDEST SWAP3 SWAP2 POP POP JUMP JUMPDEST PUSH0 DUP2 SWAP1 POP SWAP2 SWAP1 POP JUMP JUMPDEST PUSH2 0xA8E DUP2 PUSH2 0xA7C JUMP JUMPDEST DUP2 EQ PUSH2 0xA98 JUMPI PUSH0 DUP1 REVERT JUMPDEST POP JUMP JUMPDEST PUSH0 DUP2 MLOAD SWAP1 POP PUSH2 0xAA9 DUP2 PUSH2 0xA85 JUMP JUMPDEST SWAP3 SWAP2 POP POP JUMP JUMPDEST PUSH0 DUP2 MLOAD SWAP1 POP PUSH2 0xABD DUP2 PUSH2 0x76F JUMP JUMPDEST SWAP3 SWAP2 POP POP JUMP JUMPDEST PUSH0 DUP1 PUSH0 DUP1 PUSH0 PUSH1 0xA0 DUP7 DUP9 SUB SLT ISZERO PUSH2 0xADC JUMPI PUSH2 0xADB PUSH2 0x6BE JUMP JUMPDEST JUMPDEST PUSH0 PUSH2 0xAE9 DUP9 DUP3 DUP10 ADD PUSH2 0xA68 JUMP JUMPDEST SWAP6 POP POP PUSH1 0x20 PUSH2 0xAFA DUP9 DUP3 DUP10 ADD PUSH2 0xA9B JUMP JUMPDEST SWAP5 POP POP PUSH1 0x40 PUSH2 0xB0B DUP9 DUP3 DUP10 ADD PUSH2 0xAAF JUMP JUMPDEST SWAP4 POP POP PUSH1 0x60 PUSH2 0xB1C DUP9 DUP3 DUP10 ADD PUSH2 0xAAF JUMP JUMPDEST SWAP3 POP POP PUSH1 0x80 PUSH2 0xB2D DUP9 DUP3 DUP10 ADD PUSH2 0xA68 JUMP JUMPDEST SWAP2 POP POP SWAP3 SWAP6 POP SWAP3 SWAP6 SWAP1 SWAP4 POP JUMP JUMPDEST PUSH0 PUSH2 0xB44 DUP3 PUSH2 0xA7C JUMP JUMPDEST SWAP2 POP PUSH2 0xB4F DUP4 PUSH2 0xA7C JUMP JUMPDEST SWAP3 POP DUP3 DUP3 MUL PUSH2 0xB5D DUP2 PUSH2 0xA7C JUMP JUMPDEST SWAP2 POP PUSH32 0x8000000000000000000000000000000000000000000000000000000000000000 DUP5 EQ PUSH0 DUP5 SLT AND ISZERO PUSH2 0xB94 JUMPI PUSH2 0xB93 PUSH2 0x83C JUMP JUMPDEST JUMPDEST DUP3 DUP3 SDIV DUP5 EQ DUP4 ISZERO OR PUSH2 0xBA9 JUMPI PUSH2 0xBA8 PUSH2 0x83C JUMP JUMPDEST JUMPDEST POP SWAP3 SWAP2 POP POP JUMP INVALID LOG2 PUSH5 0x6970667358 0x22 SLT KECCAK256 0xEE 0xD3 MLOAD 0xF6 0xE9 PUSH9 0x68893DCF24F489EAEA SDIV PUSH12 0x233DFD69A307FB7549AE82E 0x26 0xE 0x1E PUSH5 0x736F6C6343 STOP ADDMOD BYTE STOP CALLER "
				},
				"gasEstimates": {
					"creation": {
						"codeDepositCost": "609200",
						"executionCost": "infinite",
						"totalCost": "infinite"
					},
					"external": {
						"": "infinite",
						"MINIMUN_USD()": "303",
						"addressToAmountFunded(address)": "2824",
						"fund()": "infinite",
						"funders(uint256)": "5031",
						"i_owner()": "infinite",
						"withdraw()": "infinite"
					}
				},
				"methodIdentifiers": {
					"MINIMUN_USD()": "2100f479",
					"addressToAmountFunded(address)": "3e47d6f3",
					"fund()": "b60d4288",
					"funders(uint256)": "dc0d3dff",
					"i_owner()": "dba6335f",
					"withdraw()": "3ccfd60b"
				}
			},
			"storageLayout": {
				"storage": [
					{
						"astId": 60,
						"contract": "FundMe.sol:FundMe",
						"label": "funders",
						"offset": 0,
						"slot": "0",
						"type": "t_array(t_address)dyn_storage"
					},
					{
						"astId": 66,
						"contract": "FundMe.sol:FundMe",
						"label": "addressToAmountFunded",
						"offset": 0,
						"slot": "1",
						"type": "t_mapping(t_address,t_uint256)"
					}
				],
				"types": {
					"t_address": {
						"encoding": "inplace",
						"label": "address",
						"numberOfBytes": "20"
					},
					"t_array(t_address)dyn_storage": {
						"base": "t_address",
						"encoding": "dynamic_array",
						"label": "address[]",
						"numberOfBytes": "32"
					},
					"t_mapping(t_address,t_uint256)": {
						"encoding": "mapping",
						"key": "t_address",
						"label": "mapping(address => uint256)",
						"numberOfBytes": "32",
						"value": "t_uint256"
					},
					"t_uint256": {
						"encoding": "inplace",
						"label": "uint256",
						"numberOfBytes": "32"
					}
				}
			},
			"userdoc": {
				"kind": "user",
				"methods": {},
				"version": 1
			}
		}
	}
}